:020000040800F2
:100000001806002001010008090100080B01000882
:100010000D0100080F010008110100080000000098
:10002000000000000000000000000000350F000884
:100030001501000800000000B50D0008390F000888
:100040001B0100081B0100081B0100081B01000820
:100050001B0100081B0100081B0100081B01000810
:100060001B0100081B0100081B0100081B01000800
:100070001B0100081B0100081B0100081B010008F0
:100080001B0100081B0100081B0100081B010008E0
:100090001B0100081B0100081B0100081B010008D0
:1000A0001B010008A91000081B0100081B01000823
:1000B000F910000845110008891100081B0100080B
:1000C0001B0100081B0100081B0100081B010008A0
:1000D0001B0100081B0100080D120008291200086E
:1000E0001B0100081B0100081B010008DFF80CD0F1
:1000F00000F03CF80048004755150008180600209D
:100100000648804706480047FEE7FEE7FEE7FEE7B1
:10011000FEE7FEE7FEE7FEE7FEE7FEE75110000818
:10012000ED00000840EA01039B0703D009E008C97D
:10013000121F08C0042AFAD203E011F8013B00F8AC
:10014000013B521EF9D27047D2B201E000F8012BF8
:10015000491EFBD270470022F6E710B513460A4647
:1001600004461946FFF7F0FF204610BD064C074D28
:1001700006E0E06840F0010394E807009847103477
:10018000AC42F6D3FFF7B6FF3C1B00085C1B00082F
:1001900008B50549C9690143034AD1611146C969D6
:1001A0000140009100BF08BD0010024008B505499C
:1001B00089690143034A91611146896901400091AF
:1001C00000BF08BD001002402DE9F04102460B4679
:1001D0001868C0F30F2595FAA5F0B0FA80F47CE01A
:1001E0000120A0402840002876D0082C04D240F2FC
:1001F000011000FA04F106E0A4F108004FF0011626
:10020000864046F080611869D66826EA11260F0AF2
:1002100097FAA7F7B7FA87F700FA07F73E43D660D1
:1002200000BF586802EB116691FAA1FCBCFA8CFC85
:100230004FEA8C084FF00F0C0CFA08FC376827EADD
:100240000C0791FAA1FCBCFA8CFC4FEA8C0C00FA6A
:100250000CFC47EA0C07376000BF5868012802D041
:100260005868092838D1986802EB116691FAA1FC08
:10027000BCFA8CFC4FEA8C084FF0030C0CFA08FC1B
:10028000376827EA0C0791FAA1FCBCFA8CFC4FEA0C
:100290008C0C00FA0CFC47EA0C07376000BFD868EA
:1002A00002EB116691FAA1FCBCFA8CFC4FEA8C08B7
:1002B0004FF0040C0CFA08FC376827EA0C0791FA97
:1002C000A1FCBCFA8CFC4FEA8C0C00FA0CFC47EA4F
:1002D0000C07376000BF00BF641C25FA04F000283B
:1002E0007FF47EAFBDE8F08102469068C1F30F2332
:1002F0001840C1F30F23984201D10120704700201C
:10030000FCE74FF47A71B0FBF1F2521E4FF0E0239C
:100310005A6100229A6105221A6100BF704710B528
:10032000044600F0BDFD2060206800F085FD60609F
:10033000606800F091FDA060606800F09FFDE060E3
:1003400010BD00000149086070470000480000200F
:10035000016821F0800101607047816821F080010F
:1003600081607047016841F0010101607047C16818
:1003700041F00101C1607047016821F00201016094
:1003800070470146086800F010007047F0B503465A
:100390001446012901D1002516E0042901D10125C7
:1003A00012E0102901D102250EE0402901D10325D8
:1003B0000AE0B1F5807F01D1042505E0B1F5806F39
:1003C00001D1052500E006252846094D2E5C03F1E4
:1003D000180572191568074E375C0326BE40B543F1
:1003E000260C044F3F5CBE4035431560F0BD000055
:1003F000FB1A0008091B0008F0B503461446012942
:1004000001D1002516E0042901D1012512E01029AF
:1004100001D102250EE0402901D103250AE0B1F502
:10042000807F01D1042505E0B1F5806F01D105255C
:1004300000E006252846094D2E5C03F118057219C7
:100440001568074E375CF026BE40B543260C044FB6
:100450003F5CBE4035431560F0BD0000FB1A00084C
:10046000091B000870B5012901D1002416E00429F8
:1004700001D1012412E0102901D102240EE040290B
:1004800001D103240AE0B1F5807F01D1042405E005
:10049000B1F5806F01D1052400E006242346046AEB
:1004A000054DEE5C0A25B540AC43034DED5C02FA08
:1004B00005F52C43046270BD101B0008F0B503461F
:1004C0001446012901D1002516E0042901D1012596
:1004D00012E0102901D102250EE0402901D10325A7
:1004E0000AE0B1F5807F01D1042505E0B1F5806F08
:1004F00001D1052500E006252846094D2E5C03F1B3
:10050000180572191568074E375C0C26BE40B543B6
:10051000260C044F3F5CBE4035431560F0BD000023
:10052000FB1A0008091B000810B5024613681C4896
:10053000824208D0B2F1804F05D01A48824202D0E0
:100540001948824204D123F070004C6840EA040349
:100550001348824208D0B2F1804F05D01148824240
:1005600002D01148824204D123F44070CC6840EAA2
:10057000040313608868D06200BF0888906200BFDF
:100580000748824203D10869106300BF00BF00BF63
:10059000506940F00100506100BF002010BD000014
:1005A000002C01400004004000080040826822F056
:1005B00007020A4382607047426822F070020A43D1
:1005C0004260704708B50168009100BF4168009122
:1005D00000BF08BD016921F490410161416921F02A
:1005E0002A0141617047C16841F40051C160704700
:1005F000416941F0010141617047C16841F020014A
:10060000C16070472DE9FF4104460D4601270026D1
:10061000204600F050F8002833D1E96868680843A4
:1006200029690843E16841F20C6291430843E060A4
:10063000A868216921F440510143216100BF686924
:10064000616921F440710143616100BF6846FFF7B1
:1006500066FE0E48844201D1039E08E00C488442A5
:1006600001D1029E03E00B48844200D1029E46B1B4
:10067000286830B10027314620462A6800F025F866
:1006800000BF384604B0BDE8F081000000380140EA
:10069000004400400048004001460868C0F3401094
:1006A000704701460868C0F380107047014608682B
:1006B000C0F3C01070470146C868C0F340307047AF
:1006C0000146C868C0F34010704770B501EBC10324
:1006D00003EB01139400B3FBF4F301EBC10404EB4F
:1006E00001149500B4FBF5F46425B4FBF5F404EBB8
:1006F000C40505EB0414A3EB8403322404EB0313B9
:100700006424B3FBF4F303F0F00301EBC10404EB46
:1007100001149500B4FBF5F46425B4FBF5F403EB88
:10072000041401EBC10303EB01139500B3FBF5F3D4
:1007300001EBC10505EB01159600B5FBF6F5642646
:10074000B5FBF6F505EBC50606EB0515A3EB850332
:10075000322505EB03136425B3FBF5F303F00F0318
:1007600023449BB2836070BD4160704708B5402050
:10077000054949690143044A5161114649690140EB
:10078000009100BF00BF08BD0010024000B585B059
:1007900014216846FFF7DFFC1020FFF707FD20203B
:1007A000FFF704FD0420FFF701FD0820FFF7FEFC22
:1007B0001B48C0F30F211B4A516100BF009001206C
:1007C0000190022002900020039069461046FFF736
:1007D000FBFC154800900820019001200490694618
:1007E0001048FFF7F1FC1148009000200190694685
:1007F0000F48FFF7E9FC0F48009008200190012006
:10080000049069460A48FFF7DFFC0B48009000207F
:10081000019069460948FFF7D7FC05B000BD00000C
:100820002000200400100140C000C0040F030C048D
:100830000008014030301004F737F304000C014089
:1008400030B58BB0142106A8FFF785FC142101A850
:10085000FFF781FC4FF40060FFF7A8FC0420FFF7CE
:10086000A5FC33480190082002900120059001A9C1
:100870003048FFF7A9FC00F087FD0546002211462D
:1008800000F078FA04462146192000F085FD192071
:1008900000F06CFD01212848FFF788FE4FF48032FC
:1008A00001212548FFF772FD002201212248FFF7B0
:1008B00005FE4FF4700201211F48FFF79DFD002245
:1008C00001211D48FFF7CEFD4FF4803210211A4858
:1008D000FFF75CFD002210211748FFF7EFFD4FF4F2
:1008E000700210211448FFF787FD002210211248E2
:1008F000FFF7B8FD0020ADF8180007900120089020
:10090000002009900A9006A90B48FFF70DFE00BFD2
:100910000948006840F080000749086000BF0021D6
:100920000548FFF749FE0448FFF717FD0BB030BD3F
:100930000300030400080140002C014030B58BB0D7
:10094000142106A8FFF707FC142101A8FFF703FCF8
:100950000120FFF71DFC0420FFF728FC0820FFF70B
:1009600025FC38480190082002900120059001A93B
:100970003548FFF729FC40F6080001900820029056
:100980000120059001A93148FFF71EFC00F0FCFC96
:1009900005460022114600F0EDF9044621461C20D0
:1009A00000F0FAFC1C2000F0E1FC01218807FFF7B1
:1009B000FDFD4FF4803201218807FFF7E7FC00229C
:1009C00001218807FFF77AFD4FF4700201218807A3
:1009D000FFF712FD002201218807FFF743FD4FF4C6
:1009E000803210218806FFF7D1FC002210218806F2
:1009F000FFF764FD4FF4700210218806FFF7FCFC3E
:100A0000002210218806FFF72DFD0020ADF8180008
:100A10000790012008900020099006A94FF080401F
:100A2000FFF782FD4FF08040FFF792FC00214FF06E
:100A30008040FFF7C1FD4FF08040FFF78EFC0BB008
:100A400030BD00008000800400080140000C01401F
:100A500030B58BB0142106A8FFF77DFB142101A847
:100A6000FFF779FB0220FFF793FB0420FFF79EFBC3
:100A70004CF2C0000190082002900120059001A9CD
:100A80002C48FFF7A1FB00F07FFC05460022114631
:100A900000F070F9044621461D2000F07DFC1D2069
:100AA00000F064FC01212448FFF780FD4FF4803200
:100AB00001212148FFF76AFC002201211E48FFF7AF
:100AC000FDFC4FF4700201211B48FFF795FC00224A
:100AD00001211948FFF7C6FC4FF480321021164857
:100AE000FFF754FC002210211348FFF7E7FC4FF4F6
:100AF000700210211048FFF77FFC002210210E48E1
:100B0000FFF7B0FC0020ADF8180007900120089016
:100B10000020099006A90848FFF706FD0648FFF7E0
:100B200017FC00210448FFF747FD0348FFF715FCB9
:100B30000BB030BD000801400004004030B58BB060
:100B4000142106A8FFF707FB142101A8FFF703FBF8
:100B50000420FFF71DFB0820FFF728FB4CF2C00024
:100B60000190082002900120059001A92C48FFF770
:100B70002BFB00F009FC05460022114600F0FAF8B4
:100B8000044621461E2000F007FC1E2000F0EEFB6C
:100B900001212448FFF70AFD4FF48032012121484A
:100BA000FFF7F4FB002201211E48FFF787FC4FF4FA
:100BB000700201211B48FFF71FFC00220121194888
:100BC000FFF750FC4FF4803210211648FFF7DEFB90
:100BD000002210211348FFF771FC4FF4700210211E
:100BE0001048FFF709FC002210210E48FFF73AFCDD
:100BF0000020ADF81800079001200890002009900F
:100C000006A90848FFF790FC0648FFF7A1FB002162
:100C10000448FFF7D1FC0348FFF79FFB0BB030BD42
:100C2000000C01400008004030B58DB01C2106A822
:100C3000FFF791FA142101A8FFF78DFA4FF4003065
:100C4000FFF7A6FA0420FFF7B1FA40F20440019042
:100C500009200290032003900020049001A9194864
:100C6000FFF7B2FA40F6080001900420029001A9B3
:100C70001448FFF7A9FA00F087FB05460022114649
:100C800000F078F804462146262000F085FB262057
:100C900000F06CFB4FF4E1300690002007900890C4
:100CA00009900C200A9000200B900C9006A9064891
:100CB000FFF7A8FC0448FFF78DFC0348FFF793FCFF
:100CC0000DB030BD000801400044004030B58DB08B
:100CD0001C2106A8FFF73FFA142101A8FFF73BFAF1
:100CE0004FF48020FFF754FA0820FFF75FFA1D4801
:100CF000019009200290032003900020049001A994
:100D00001948FFF761FA194801900420029001A9DF
:100D10001548FFF759FA00F037FB05460022114647
:100D200000F028F804462146272000F035FB272054
:100D300000F01CFB4FF4E130069000200790089073
:100D400009900C200A9000200B900C9006A90848EE
:100D5000FFF758FC0648FFF73DFC0548FFF743FC4A
:100D60000DB030BD04000404000C0140080008046C
:100D700000480040F0B503460C4603F00701C1F1FE
:100D80000700042801D9042001E0C1F1070006464C
:100D9000081D072801D2002000E0C81E05460120DA
:100DA000B040401E2040A8400127AF407F1E1740A2
:100DB0003843F0BD704700002DE9F04104460D4670
:100DC0000026274600BF0BE000BF0A48FFF76EFC75
:100DD0000028FAD017F8011B0648FFF7C5FC761C5F
:100DE000AE42F1D300BF0348FFF75BFC0028FAD006
:100DF000BDE8F081004800402DE9F04104460D4671
:100E00000026274600BF0BE000BF0A48FFF74EFC54
:100E10000028FAD017F8011B0648FFF7A5FC761C3E
:100E2000AE42F1D300BF0348FFF73BFC0028FAD0E5
:100E3000BDE8F08100440040014600BF044840681E
:100E400000F0F0000009034A125C21FA02F070473A
:100E500000100240231B0008014600BF05484068FF
:100E600000F4E060044A02EB1020027821FA02F05C
:100E70007047000000100240331B0008014600BF0D
:100E80000548406800F46050044A02EBD020027824
:100E900021FA02F07047000000100240331B0008E6
:100EA00010B5002400BF0B48406800F00C0020B1D2
:100EB000042804D0082808D103E0074C07E0064CBA
:100EC00005E000F00BF8044601E0034C00BF00BF52
:100ED000204610BD0010024000127A0000210022BE
:100EE00000BF1148406800F4803002461AB1B2F5E4
:100EF000803F0CD101E00D490BE000BF0A4840687B
:100F0000C0F34040401C0A4BB3FBF0F101E007493D
:100F100000BF00BF00BF0448406800F47010022307
:100F200003EB9040484370470010024000093D0029
:100F300000127A007047000000200EE0084901EB23
:100F40004011096941B1064901EB40110969491C89
:100F5000034A02EB40121161401C0528EEDB70478A
:100F60006400002010B501203649096821F007010E
:100F70000143344A116000BF00BF00BF3148006820
:100F800000F007000128F8D100BF2F48006840F4A6
:100F900080302D49086000BF00BF00BF2A480068AC
:100FA000C0F340400028F8D04FF48030C100264AFA
:100FB000526822F47C1200F440330B431A43224B54
:100FC0005A6000BF00BF1846006840F080701946A4
:100FD000086000BF00BF00BF1B480068C0F340604E
:100FE0000028F8D000201849496821F0F001014399
:100FF000154A516000BF10151146496821F4E0619F
:101000000143516000BF00201146496821F460513E
:101010000143516000BF02201146496821F00301DD
:101020000143516000BF00BF00BF0748406800F0A7
:101030000C000828F8D10548FFF763F90348FFF7CB
:1010400081F910BD00200240001002400048E80174
:101050001148006840F001000F49086008464068E8
:101060000E4908400C494860084600680C49084091
:10107000094908600846006820F480200860084696
:10108000406820F4FE0048604FF41F008860C803E9
:101090000449086070470000001002400000FFF89B
:1010A000FFFFF6FE08ED00E010B500200E490860D5
:1010B0000D481038FFF765F9102808D10B48006873
:1010C000401E0A49086002200949087007E00748E5
:1010D0000068401C0549086001200549087001208E
:1010E0000449087010BD0000102C014004000020CD
:1010F000150000200200002010B500204FF08041B4
:1011000008610846FFF73DF9102808D10A48006831
:10111000401E0949086002200849087007E0064897
:101120000068401C0449086001200449087001203F
:101130000349087010BD00000800002017000020BF
:101140000200002010B500200C4908600B48103840
:10115000FFF717F9102808D109480068401E084910
:10116000086002200749087007E005480068401C35
:101170000349086001200349087010BD10040040B5
:101180000C0000201900002010B500201A4908604A
:1011900019481038FFF7F5F8102814D117480078CF
:1011A00040B917480068401C1549086001201549DE
:1011B00008701CE0124800680A30114908600320DA
:1011C0001049087013E00D48007840B90C480068D9
:1011D000401E0B49086002200A49087007E00848D1
:1011E00000680A3806490860042006490870012092
:1011F0000549087010BD0000100800401A000020CA
:10120000100000201B0000200200002010B505483F
:10121000FFF742FA28B10348FFF752FA08B100F08D
:1012200011F810BD0044004010B50548FFF734FA2E
:1012300028B10348FFF744FA08B100F04DF810BD9B
:101240000048004010B500BF1D484068C0B20446C9
:101250000A2C2BD11B480068012807D140211A48CD
:10126000FEF779FF00201749086010BD154908688E
:10127000411C144A116014490C5401201349087090
:10128000104600681249087040211248FEF763FFBB
:101290000C4802680C490F48FEF744FF40210A48F9
:1012A000FEF759FF00200749086007E034B10549FF
:1012B0000868411C034A116003490C5400BFD4E77D
:1012C00000440040240000200401002040000020D1
:1012D000280000208401002010B500BF1D48406890
:1012E000C0B204460A2C2BD11B480068012807D144
:1012F00040211A48FEF72FFF00201749086010BD53
:1013000015490868411C144A116014490C54012005
:1013100013490870104600681249087040211248AD
:10132000FEF719FF0C4802680C490F48FEF7FAFE59
:1013300040210A48FEF70FFF00200749086007E038
:1013400034B105490868411C034A116003490C5433
:1013500000BFD4E7004800402C00002044010020DA
:101360004100002030000020C4010020002809DBDB
:1013700000F01F02012191404209920002F1E02297
:10138000C2F800117047000002480068C0F3022054
:10139000704700000CED00E010B5002804DB0A07E0
:1013A000130E054A135406E00A07140E034A00F010
:1013B0000F031B1FD45410BD00E400E018ED00E043
:1013C00002E008C8121F08C1002AFAD1704770470E
:1013D000002001E001C1121F002AFBD1704700006C
:1013E00010B500240A20554901EB4411C861544846
:1013F000524901EB4411086042F220004F4901EBD1
:10140000441148604D4A02EB441251684B4A02EBCA
:1014100044121068FEF768FF484901EB44118861E7
:10142000464901EB4411C860641C0A20434901EBA2
:101430004411C8614248414901EB4411086041F23E
:1014400010003E4901EB441148603C4A02EB441253
:1014500051683A4A02EB44121068FEF745FF3749DB
:1014600001EB44118861354901EB4411C860641CEB
:101470000A20324901EB4411C86132482F4901EB7F
:101480004411086030482D4901EB441148602B4A53
:1014900002EB44125168294A02EB44121068FEF72D
:1014A00023FF264901EB44118861244901EB4411D3
:1014B000C860641C0A20214901EB4411C86121481D
:1014C0001E4901EB4411086020481C4901EB4411FE
:1014D00048601A4A02EB44125168184A02EB44125F
:1014E0001068FEF701FF154901EB441188611349AB
:1014F00001EB4411C860641C0A20104901EB44113F
:10150000C8610F480D4901EB4411086010480B49B0
:1015100001EB44114860094A02EB44125168074A42
:1015200002EB44121068FEF7DFFE044901EB4411A0
:101530008861024901EB4411C86010BD64000020BD
:101540000008014000100140800080044000400479
:10155000100010040120FEF729FE4FF08050FEF726
:1015600017FE05200246AA4B19684FF6FF031940E3
:10157000A84B0B4343EA0221A54B196000BF00BFF3
:10158000A548406820F0E060A349486008464068EC
:1015900040F00070486000BFFFF7E4FC00BF4FF070
:1015A000E020006940F002004FF0E021086100BF38
:1015B000FFF7ECF8FFF7DAF8FFF7C0FAFFF748FAA1
:1015C000FFF73EF9FFF7BAF9FFF72EFBFFF77EFBB7
:1015D000FFF706FF9148FEF7F5FF9048FFF70DF87B
:1015E0008E48FFF705F88E48FEF7ECFF8C48FFF7B2
:1015F00004F88B48FEF7FCFF00BF6FF0010089493B
:10160000086100BF0846FEF7B7FE8648FEF7AFFE4A
:101610008448FEF7A7FE00BF6FF001008249086111
:1016200000BF0846FEF7A8FE7F48FEF7A0FE7E48F2
:10163000FEF798FE00BF784840687C490840C943DF
:1016400008437549486000BF00BF6FF0010089037F
:10165000086100BF0846FEF78FFE4FF08040FEF79E
:1016600086FE4FF08040FEF77DFE7148C0F30F21EB
:10167000704A116100BFCAE000F02EF96E480068A0
:10168000B0F5807F1DD008DC012810D0022822D0C0
:10169000102811D0202826D11EE0B0F5007F1CD0E4
:1016A000B0F5805F12D0B0F5005F1CD116E00A21C2
:1016B00062A0FFF7A1FB16E0092163A0FFF79CFBE6
:1016C00011E00A2163A0FFF797FB0CE0092164A059
:1016D000FFF792FB07E000BF00BF00BF042163A03B
:1016E000FFF78AFB00BF00BF002053490860614834
:1016F0000078012807D1604801786048FFF75CFB5B
:1017000000205C4908705E480078012807D15D48D8
:1017100001785D48FFF770FB0020594908705B486D
:1017200090F9000000281DDD584890F900000128BC
:1017300002D0022812D108E0042155A0FFF75CFB7B
:10174000042153A0FFF738FB08E0042152A0FFF763
:1017500053FB042150A0FFF72FFB00BF00BF002068
:101760004A4908704E4890F9000000281DDD4C4899
:1017700090F90000012802D0022812D108E00421CB
:1017800048A0FFF739FB042146A0FFF715FB08E04E
:10179000042146A0FFF730FB042144A0FFF70CFB17
:1017A00000BF00BF00203E490870424890F9000089
:1017B00000282BDD3F4890F90000012806D00228C0
:1017C0000DD0032814D004281CD116E004213AA01F
:1017D000FFF712FB042138A0FFF7EEFA12E0042114
:1017E00037A0FFF709FB042135A0FFF7E5FA09E070
:1017F000042135A0FFF700FB04E0042134A0FFF72B
:10180000FBFA00BF00BF00202A49087000BF33E781
:101810000CED00E00000FA0500000140004400402B
:10182000004800400008004000040040FFFCFFF8B2
:1018300020002004001001406000002047302058A4
:101840002D3230300D0A0000473020583230300D34
:101850000A0000004730205A2D3230300D0A0000B7
:101860004730205A3230300D0A00000021530D0A53
:10187000000000004000002028000020840100201B
:101880004100002030000020C4010020170000208B
:1018900021770D0A0000000021730D0A00000000EE
:1018A0001900002021740D0A0000000021670D0AB4
:1018B000000000001B00002021610D0A0000000054
:1018C00021640D0A0000000021410D0A0000000003
:1018D00021440D0A0000000070B5002402E1844894
:1018E00000EB4410006858B1814A02EB4412516881
:1018F0007F4A02EB44121068FEF7F6FC054603E04F
:101900007B4800EB44104568794800EB4410C06800
:10191000A84209D0764800EB4410C5600120744904
:1019200001EB4411086170BD714800EB441000697F
:1019300014287AD96E4800EB4410C069322856D07A
:1019400008DC0A280FD0142815D01E282FD02828EC
:1019500010D13BE03C2858D0462867D050287DD095
:101960005A28F5D1A8E0012D04D01420604901EBDC
:101970004411C861B4E0012D05D132205C4901EB6E
:101980004411C86107E05A4800EB44100069584907
:1019900001EB44118860564800EB44108068FA2837
:1019A00004D91E20524901EB4411C86198E001217D
:1019B000002000EB8400800000F10850C0F8001CFB
:1019C00028204B4901EB4411C86189E0012D05D164
:1019D0003220474901EB4411C86107E0444800EB5D
:1019E00044100069424901EB4411886078E04048A6
:1019F00000EB44108068FA2801D2462000E03C2029
:101A00003B4901EB4411C8616AE0394800EB4410DE
:101A10008068FA280BD20121022000EB84008000AC
:101A200000F10850C0F8001C09E05AE017E001215D
:101A300001EB8400800000F10850C0F8001C002079
:101A40002B4901EB44110861294901EB44118860DD
:101A50000A20274901EB4411C86141E01BE0012D38
:101A600013D1234800EB44100069214901EB4411D4
:101A700088601F4800EB441080686E280AD93C201B
:101A80001B4901EB4411C86104E05020184901EBE7
:101A90004411C86124E0012D05D15A20144901EBFD
:101AA0004411C86107E0124800EB44100069104976
:101AB00001EB4411886013E00121032000EB840056
:101AC000800000F10850C0F8001C0A20084901EB12
:101AD0004411C8610020064901EB4411086100BFB0
:101AE00000BF641C052CFFF6FAAE00BF1BE7000028
:101AF00064000020081C3044586C80000000000482
:101B000004040000080000000800000800000008AD
:101B100000020406080A0C000102030405066F6BAC
:101B20000D0A00000000000000000001020304068E
:101B30000708090000000001020304005C1B000804
:101B4000000000204C000000C0130008A81B000883
:101B50004C000020CC050000D0130008000000005D
:101B60000000000000000000000000000000000075
:101B7000000000000000000000000000FFFFFFFF69
:101B80000000000000000000000000000000000055
:101B90000000000000000000000000000000050040
:081BA000000F000000A24A043E
:04000005080000ED02
:00000001FF
