:020000040800F2
:100000000807002001010008090100080B01000891
:100010000D0100080F010008110100080000000098
:10002000000000000000000000000000250500089E
:10003000150100080000000021050008290500083E
:100040001B0100081B0100081B0100081B01000820
:100050001B0100081B0100081B0100081B01000810
:100060001B0100081B0100081B0100081B01000800
:100070001B0100081B0100081B0100081B010008F0
:100080001B0100081B0100081B0100081B010008E0
:100090001B0100081B0100081B0100081B010008D0
:1000A0001B010008C90600081B0100081B0100080D
:1000B000110700085D070008990700081B010008E8
:1000C0001B0100081B0100081B0100081B010008A0
:1000D0001B0100081B010008110800082D0800087A
:1000E0001B0100081B0100081B010008DFF80CD0F1
:1000F00000F02AF8004800477509000808070020AA
:100100000648804706480047FEE7FEE7FEE7FEE7B1
:10011000FEE7FEE7FEE7FEE7FEE7FEE779060008FA
:10012000ED00000840EA01039B0703D009E008C97D
:10013000121F08C0042AFAD203E011F8013B00F8AC
:10014000013B521EF9D27047064C074D06E0E068AD
:1001500040F0010394E8070098471034AC42F6D30E
:10016000FFF7C8FF141F0008341F00082DE9F04FE7
:10017000B1F8018098FAA8F3B3FA83F338FA03F7D9
:100180004FD040F2011C4FF0011E4FF00F0A4FF00C
:10019000040903E0013338FA03F242D028FA03F5E8
:1001A000ED07F7D0B3F108050EFA05F545F08066C6
:1001B0004D6838BF0CFA03F6082D0DD1370AD1F877
:1001C00010B0C46897FAA7F7B7FA87F724EA16249D
:1001D0000BFA07F73C43C460370E96FAA6F6B6FA58
:1001E00086F63C58B6000AFA06F224EA020205FA3C
:1001F00006F442EA04053D504A6842F00802092A22
:10020000C8D18A680324B44025EA0404B2402243DA
:10021000C251CC6809FA06F5AA43B4402243C25140
:10022000B8E70020BDE8F08FF0B585B0044600685F
:100230000D4620F00100206001A800F07BF8DDF8F9
:100240000CE04DF68361C4F21B31AEFB0113D5E91E
:10025000012C6168980C21F03F0141EA93414FF471
:1002600096766160704344F6D356216AC1F2620605
:10027000A0FB060621F03F0048F2A061C0F2010198
:100280004F1CB609BA4238BF9E0C731C18438A42F1
:1002900020620FD91920BCF1000F08BF0320504382
:1002A000BEFBF0F0010508BF012040EA0C0040F45D
:1002B000004007E05000BEFBF0F040F6FC71084241
:1002C00008BF0420E1694CF6FF7291430843E061E6
:1002D00005F10C0328680ECBA76848F2FF36B74338
:1002E00019433943A160216821F01A0108432060B5
:1002F000206840F001002060206820F4806040EA1F
:1003000002010020216005B0F0BD000044F6D35189
:10031000C1F26201A0FB01014FF0FF3000EB911030
:100320004EF21001CEF200014860002088600520E6
:100330000860704741F2040CC4F2020CDCF80020A3
:1003400002F00C02082A41F20022C0F27A0215D112
:10035000DCF80030DB0304D440F60012C0F23D02AA
:1003600006E0DCF80030C3F340430133B2FBF3F2A4
:10037000DCF80030C3F3834302335A430260DCF8F5
:10038000003041F6FC61C3F30313C0F60001C95C01
:1003900041F60C7322FA01F14160DCF80020C0F64E
:1003A0000003C2F302229A5C21FA02F28260DCF8B6
:1003B0000020C2F3C2229A5CD140C16070470000A5
:1003C00040F20801C2F200010860704780B540F2B7
:1003D000FF7E0368C4F2000E42F6004C02467045F0
:1003E000C4F2010C05DCB2F1804F0AD040F20040AB
:1003F00003E0624505D040F60000C4F200008242EE
:1004000003D1486823F070030343724505DCB2F161
:10041000804F0AD040F2004003E0624505D040F62C
:100420000000C4F20000824203D1C86823F4407384
:100430000343136088686245D0620888906202D1E5
:100440000869CCF83000506940F00101002051618A
:1004500080BD0000B0B584B00446C06880045BD4A1
:10046000E0680D4641F20C618843D5E9011CD5E9ED
:100470000332084318431043D5F814E0E0602069C4
:1004800020F4405040EA0C002061606920F4407084
:1004900040EA0E0060616846FFF74CFF44F20040FE
:1004A000C4F2000084420FD044F60000C4F2000001
:1004B000844209D043F60000C4F2010084420CBF1C
:1004C0000398002010B927E0029828B3296819B3CF
:1004D000192250438900B0FBF1F048F21F51C5F2D8
:1004E000EB11A0FB01235A094FF69C73C0F6FF7372
:1004F00002FB0300322303EB0010A0FB0101F020FC
:1005000000EA511000EB0210C1F3431180B208441D
:10051000A060002004B0B0BD012004B0B0BD000058
:10052000704700007047000040F24C00C2F200002B
:10053000016900291CBF01310161016B00291CBF49
:1005400001310163016D00291CBF01310165016F9B
:1005500000291CBF01310167D0F8901000291CBF91
:100560000131C0F89010704710B542F20000C4F29B
:1005700002000168012262F302010160016801F0DA
:10058000070101290ED0016801F00701012909D0F6
:10059000016801F00701012904D0016801F0070199
:1005A0000129EBD141F20400C4F2020050F8041C0E
:1005B00041F4803140F8041C50F8041C89030CD429
:1005C00050F8041C89035CBF50F8041C5FEA8131B9
:1005D00003D450F8041C8903EED50168092262F3A4
:1005E0001541016050F8041C41F0807140F8041C72
:1005F00050F8041C89010CD450F8041C89015CBF1C
:1006000050F8041C5FEA811103D450F8041C8901DE
:10061000EED50168042221F0F0010160016862F367
:100620000A2101600168022221F460510160016821
:1006300062F30101016000BF016801F00C010829AB
:100640000ED0016801F00C01082909D0016801F001
:100650000C01082904D0016801F00C010829EBD134
:1006600044F60004C0F2E8142046FFF74FFE20468F
:10067000BDE81040FFF7A4BE41F20000C4F2020042
:100680000168002241F0010101604168CFF6FF02DC
:100690001140416001684FF6FF72CFF6F6621140DB
:1006A0000160016821F480210160416821F4FE01AC
:1006B00041604FF41F0181604EF60850CEF20000F9
:1006C0004FF000610160704742F60040C4F2010043
:1006D0000021016100684FF0FF3210F0100040F27D
:1006E000F000C2F20000016808BF012211444FF07F
:1006F000020208BF0122016040F2F400C2F20000D1
:10070000027040F20510C2F2000001210170704732
:100710001020C4F20000002101604FF0804000680A
:100720004FF0FF3210F0100040F2F800C2F200006B
:10073000016808BF012211444FF0020208BF0122E4
:10074000016040F21000C2F20000027040F2051099
:10075000C2F20000012101707047000040F2004029
:10076000C4F200000021016100684FF0FF3210F078
:10077000100040F2FC00C2F20000016808BF012234
:1007800011444FF0020208BF0122016040F2110043
:10079000C2F2000002707047B0B540F60000C4F22B
:1007A00000000021016140F20411C2F20001006862
:1007B000097840F2001CC2F2000CDCF800E00A22CA
:1007C00000294FF003036FF009044FF0040500F017
:1007D000100008BF012208BF012308BF4FF0FF34FB
:1007E000002908BF022500281CBF14461D460EEB39
:1007F0000400CCF8000040F21200C2F200000570C4
:1008000040F20510C2F2000001210170B0BD0000ED
:1008100044F20040C4F200000168890646BFC06887
:100820005FEA8060704700F00FB8000044F60000F7
:10083000C4F200000168890646BFC0685FEA8060B4
:10084000704700F027B80000B0B582B044F2044011
:1008500040F21004C4F20000C2F200040568D4E9BA
:1008600005200DF107018DF80750FFF75BFCD4E977
:100870000501A26808449042A06101D16068A061AE
:100880002069E9B201300A29206104BF0120E0702B
:1008900002B0B0BD10B582B044F60400C4F200004E
:1008A00040F210040168C2F20004D4E90C208DF873
:1008B00007100DF10701FFF735FCD4E90C01626A5E
:1008C00008449042606301D1206A6063E06A0130AD
:1008D000E06202B010BD000010B540F24C0040F6DE
:1008E0000001C2F200004FF00A0EC4F2010142F210
:1008F0002003C0F81CE0C0E900138B68C0F83CE09E
:10090000C3F340138361C36041F210030162436289
:100910008B6840F2100CC0F2104CC3F300130CF1C2
:1009200070128363C36201F50063426441F20802FE
:10093000C0F85CE00364C4F2010214680366C4F307
:10094000C0340CF130138465C464C0F87CE04366A5
:100950001268C0F89CE0C2F380328267C266C0E9C8
:10096000201C8968C1F30031C0F89810C0F88C10C1
:1009700010BD00008EB06420642401F089FA40F2BA
:10098000100AC2F2000ACAF8040058B100F164016A
:10099000CAE902140021CAF810100121CAE90510A1
:1009A000CAF81C006420642401F072FACAF820001E
:1009B00058B100F16401CAE909140021CAF82C10E9
:1009C0000121CAE90C10CAF8380041F21808C4F233
:1009D0000208D8F800004EF60C5340F00100C8F8A9
:1009E0000000D8F80000CEF2000300F001000290F1
:1009F0000298D8F804004FF6FF0140F08050C8F884
:100A00000400D8F80400042200F0805002900298FC
:100A10001868C4F20102084040F0052040F47A0052
:100A200018601068022640F6000444F6040540F2FF
:100A3000184966F31A60C4F20104C4F20005C4F256
:100A400000091060FFF790FD4EF20011CEF2000198
:100A500051F8F00C4FF0000B40F0020041F8F00CA0
:100A6000CDF818B0D8F800004FF4005140F0100055
:100A7000C8F80000D8F8000002AF00F0100009909C
:100A80000998D8F8000040F02000C8F80000D8F815
:100A9000000000F0200009900998D8F8000040F00C
:100AA0000400C8F80000D8F8000000F00400099025
:100AB0000998D8F8000040F00800C8F80000D8F8FD
:100AC000000000F008000990099841F21400C4F2F7
:100AD000010001602020C0F220400290012003A903
:100AE00081E8410804F5006630463946FFF73EFBD1
:100AF0002020C0F2204000F1A010029008200390B6
:100B00000120069030463946FFF730FB40F20F30A7
:100B1000C0F20C40CDE9020B20463946FFF726FB18
:100B200043F23000C0F210400290012008260690E7
:100B3000204639460396FFF719FB43F2F770C0F2DF
:100B4000F04004F58064CDE9020B2046394600945C
:100B5000FFF70CFB58F8040C09A940F0400048F8D6
:100B6000040C58F8040C00F0400002900298CDF8F4
:100B700018B0CDE904BBCDE902BBCDE90BBBD8F879
:100B8000040040F00400C8F80400D8F8040000F0A5
:100B9000040001900198D8F8000040F00800C8F85F
:100BA0000000D8F8000000F00800019001984CF215
:100BB000C000CDE9090601200D902046FFF7D6FAC6
:100BC0004EF60C57CEF2000738684EF21940CEF2BE
:100BD00000004EF2001480F805B04FF08040CEF2D5
:100BE00000042060D9F8F003012262F3020040F60D
:100BF0001801C9F8F003C4F200010868012662F385
:100C000001000860086820F00C000860086840F0E7
:100C1000F0000860886820F00A008860086866F3C1
:100C200009200860086820F440600860086840F403
:100C300070400860886820F0A000886009F57A702C
:100C400002A9ADF808B0CDE903B6CDF814B0FFF7AE
:100C5000BDFBD9F8E80309A920F08000C9F8E80332
:100C6000D9F8EC0320F07000C9F8EC03D9F8F003D0
:100C700020F08000C9F8F003CDF818B0CDE904BB2E
:100C8000CDE902BBCDE90BBBD8F8040040F002006F
:100C9000C8F80400D8F8040000F0020001900198A0
:100CA000D8F8000040F00400C8F80000D8F80000B0
:100CB00000F00400019001984CF2C0000990082057
:100CC0000A9040F60000C4F201000D96FFF74EFABC
:100CD00038684EF21940CEF2000080F804B04FF0B0
:100CE0000050206059F8100C012161F3020049F80E
:100CF000100CD9F80000012461F30100C9F80000CC
:100D0000D9F80000182620F00C00C9F80000D9F826
:100D10000000C4F2000640F0F000C9F80000D9F865
:100D2000080002A920F00A00C9F80800D9F800005C
:100D300064F30920C9F80000D9F8000020F44060ED
:100D4000C9F80000D9F8000040F47040C9F800006C
:100D5000D9F8080020F0A000C9F8080006F57A705C
:100D6000ADF808B0CDE903B4CDF814B0FFF72EFB11
:100D7000D6F8E80309A920F08000C6F8E803D6F801
:100D8000EC0320F07000C6F8EC0359F8100C20F0CA
:100D9000800049F8100CCDF808B0CDE90BBBD8F8AD
:100DA000000040F6000940F40060C8F80000D8F8E0
:100DB0000000C4F2010900F4006001900198D8F825
:100DC000000040F00400C8F80000D8F8000000F06F
:100DD0000400019001980320C0F20340099008200C
:100DE0000A9048460D94FFF7C1F938684EF2194051
:100DF000CEF200004EF2001180F800B04FF000700B
:100E0000CEF2000142F618460860C4F2010656F818
:100E1000100C012161F3020046F8100C3068012427
:100E200061F301003060306802A920F00C003060EE
:100E3000306840F0F0003060B06820F00A00B06028
:100E4000306864F309203060306820F4406030601E
:100E5000306840F470403060B06820F0A000B060AE
:100E6000A6F11800CDE903B4CDE905BBFFF7AEFA52
:100E700056F8180C09AF40F0800046F8180C56F8E8
:100E8000140C394620F0700046F8140C56F8100C7B
:100E900020F0800046F8100CCDF818B0CDE904BB66
:100EA000CDE902BBCDE90BBBD8F80400082640F021
:100EB0000100C8F80400D8F8040000F00100019017
:100EC0000198D8F8000040F00400C8F80000D8F8F5
:100ED000000000F0040001900198D8F8000040F0F4
:100EE0000800C8F80000D8F8000000F008000190E1
:100EF00001982020C0F2204000F16010099048467F
:100F00000A960D94FFF732F9DDF8009040F60800DC
:100F1000CDE90906484639460D94FFF727F94EF604
:100F20000C50CEF2000000684EF219464EF200114D
:100F3000CEF200064FF08050CEF2000186F803B0EA
:100F400008601821C4F2000151F8100C012262F36C
:100F5000020041F8100C08680C4662F301000860BA
:100F60000868012220F00C000860086840F0F000DA
:100F70000860886820F00A008860086862F3092029
:100F80000860086820F440600860086840F4704019
:100F90000860886820F0A000886002A94FF08040B7
:100FA000ADF808B0CDE903B2CDF814B0FFF70EFAF2
:100FB0004FF08041086809AF20F08000086054F8C5
:100FC000140C394620F0700044F8140C54F8100C3E
:100FD00020F0800044F8100CCDF834B0D8F80400AC
:100FE00040F6000440F40030C8F80400D8F80400CB
:100FF000C4F2010400F4003002900298D8F8000016
:1010000040F00400C8F80000D8F8000000F0040028
:101010000290029840F20440099009200A900320AF
:10102000CDE90B0B2046FFF7A1F840F60800099028
:1010300004200A9020463946FFF798F84EF60C50E7
:10104000CEF2000000684EF200114020CEF2000106
:1010500086F80DB048604FF4612044F20044CDE9B9
:10106000020B0C20C4F20004CDE9060B02A92046B5
:10107000CDE904BBCDF820B0FFF7ECF920690326D9
:1010800020F4904020616069C0F2034620F02A00FD
:101090006061E06809AF40F40050E060CDF834B022
:1010A000D8F80400092440F48020C8F80400D8F8D7
:1010B0000400394600F4802002900298D8F800001D
:1010C00040F00800C8F80000D8F8000000F0080060
:1010D0000290029806F1011009900320CDE90B0B54
:1010E00048460A94FFF742F806F1051009900426D5
:1010F0004846394644F200470A96C4F20007FFF713
:1011000035F84EF60C50CEF2000000684EF2194051
:10111000CEF200004EF2001180F80EB08020CEF228
:10112000000148604FF4E130CDE9020B0C20CDE91D
:10113000060B07F5806002A9CDE904BBCDF820B00D
:10114000FFF788F9E86809A920F49040E860286969
:1011500020F02A002861A86840F40050A860CDF86B
:1011600034B0D8F8000040F00800C8F80000D8F803
:10117000000000F00800029002980320C0F2034033
:10118000CDE909040320CDE90B0604244846C4F246
:101190000104FEF7EBFF206845F2004640F0E060F6
:1011A00040F002002060D8F80400C4F2000640F4C9
:1011B0000010C8F80400D8F8040002A900F40010D8
:1011C00002900298F06820F00100F060306820F092
:1011D00040003060306820F08000306048F2A0604D
:1011E000C0F20100CDE9030B4FF4806006904FF48C
:1011F000804007903046CDF808B0CDF814B0FFF726
:1012000013F8F06820F0FE00F060FFF765FB386827
:101210000290029878680290029844F20C40C4F25E
:10122000000000BF50E8001F41F0200140E800121C
:10123000AAB150E8001F41F0200140E8001272B14D
:1012400050E8001F41F0200140E800123AB150E898
:10125000001F41F0200140E80012002AE2D144F2D0
:101260001440C4F2000000BF50E8001F41F001012B
:1012700040E80012AAB150E8001F41F0010140E827
:10128000001272B150E8001F41F0010140E8001265
:101290003AB150E8001F41F0010140E80012002A75
:1012A000E2D1D7F8000402900298286802900298D0
:1012B00044F60C00C4F2000050E8001F41F0200189
:1012C00040E80012AAB150E8001F41F0200140E8B8
:1012D000001272B150E8001F41F0200140E80012F6
:1012E0003AB150E8001F41F0200140E80012002A06
:1012F000E2D144F61400C4F2000000BF50E8001F21
:1013000041F0010140E80012AAB150E8001F41F08D
:10131000010140E8001272B150E8001F41F00101E4
:1013200040E800123AB150E8001F41F0010140E8E6
:101330000012002AE2D140F618026FF00100C4F258
:10134000000240F2184342F8080CC4F20003D3F83C
:10135000E81302AE21F00201C3F8E81352F80C1CA6
:101360004FF0300841F0010142F80C1CD3F8E813AB
:10137000182241F00101C3F8E81343F8080CC4F245
:101380000002D2F8E8134FF00A0921F00201C2F876
:10139000E81353F80C1C41F0010143F80C1CD2F87F
:1013A000E81341F00101C2F8E813216841F0E0615F
:1013B00041F44071216042F8080C4FF08040016810
:1013C00040F2EC0421F00201016052F80C1CC2F260
:1013D000000441F0010142F80C1C016841F00101D8
:1013E000016040F600014FF40050C4F20101C1F861
:1013F000100807E0DAF82C000130CAF82C000020B1
:101400008AF8020000F076FC2068B0F5007F80F2D8
:101410007380411E1F2900F2D780DFE811F0210000
:1014200061015502610155025502550255025502EE
:101430005502550255025502550255027F015502CB
:1014400055025502550255025502550255025502E4
:10145000550255025502550255025502610100BF61
:10146000DAE90C2047218DF808103146FEF75AFEC4
:10147000DAE90C20DAF8241010448842CAF8340063
:1014800003D1DAF82000CAF83400DAF82C10013160
:10149000CAF82C1031468DF80880FEF743FEDAE9D1
:1014A0000C20DAF8241010448842CAF8340003D122
:1014B000DAF82000CAF83400DAF82C100131CAF842
:1014C0002C1020218DF808103146FEF72BFEDAE9AA
:1014D0000C20DAF8241010448842CAF8340003D1F2
:1014E000DAF82000CAF83400DAF82C100131CAF812
:1014F0002C105821B9E000BFB0F5005F0CDBB0F54F
:10150000803F80F2CB80B0F5005F00F0E980B0F55D
:10151000804F00F0E580D7E1B0F5007F00F0E0807B
:10152000B0F5806F00F0DC80B0F5805F40F0CC81DA
:10153000DAE90C2047218DF808103146FEF7F2FD5C
:10154000DAE90C20DAF8241010448842CAF8340092
:1015500003D1DAF82000CAF83400DAF82C1001318F
:10156000CAF82C1031468DF80880FEF7DBFDDAE969
:101570000C20DAF8241010448842CAF8340003D151
:10158000DAF82000CAF83400DAF82C100131CAF871
:101590002C1020218DF808103146FEF7C3FDDAE942
:1015A0000C20DAF8241010448842CAF8340003D121
:1015B000DAF82000CAF83400DAF82C100131CAF841
:1015C0002C105A21F4E000BF402800F08980B0F5CB
:1015D000807F40F07981DAE90C2047218DF80810EE
:1015E0003146FEF79FFDDAE90C20DAF824101044AA
:1015F0008842CAF8340003D1DAF82000CAF834006F
:10160000DAF82C100131CAF82C1031468DF8088018
:10161000FEF788FDDAE90C20DAF82410104488423D
:10162000CAF8340003D1DAF82000CAF83400DAF836
:101630002C100131CAF82C1020218DF808103146E9
:10164000FEF770FDDAE90C20DAF824101044884225
:10165000CAF8340003D1DAF82000CAF83400DAF806
:101660002C100131CAF82C105A218DF8081031467F
:10167000FEF758FDDAE90C20DAF82410104488420D
:10168000CAF8340003D1DAF82000CAF83400DAF8D6
:101690002C100131CAF82C102D2189E020D0B0F592
:1016A000802F40F01181DAE90C2021218DF80810FB
:1016B0003146FEF737FDDAE90C20DAF82410104441
:1016C0008842CAF8340003D1DAF82000CAF834009E
:1016D000DAF82C100131CAF82C1033211BE000BFBE
:1016E000DAE90C2021218DF808103146FEF71AFDA9
:1016F000DAE90C20DAF8241010448842CAF83400E1
:1017000003D1DAF82000CAF83400DAF82C100131DD
:10171000CAF82C1053218DF8081091E0DAE90C205A
:1017200047218DF808103146FEF7FCFCDAE90C2061
:10173000DAF8241010448842CAF8340003D1DAF8E9
:101740002000CAF83400DAF82C100131CAF82C1045
:1017500031468DF80880FEF7E5FCDAE90C20DAF86E
:10176000241010448842CAF8340003D1DAF820006B
:10177000CAF83400DAF82C100131CAF82C102021F4
:101780008DF808103146FEF7CDFCDAE90C20DAF8C6
:10179000241010448842CAF8340003D1DAF820003B
:1017A000CAF83400DAF82C100131CAF82C1058218C
:1017B0008DF808103146FEF7B5FCDAE90C20DAF8AE
:1017C000241010448842CAF8340003D1DAF820000B
:1017D000CAF83400DAF82C100131CAF82C10322182
:1017E0008DF808103146FEF79DFCDAE90C20DAF896
:1017F000241010448842CAF8340003D1DAF82000DB
:10180000CAF83400DAF82C100131CAF82C1031462D
:101810008DF80880FEF786FCDAE90C20DAF824104F
:1018200010448842CAF8340003D1DAF82000CAF81C
:101830003400DAF82C100131CAF82C108DF8088029
:101840003146FEF76FFCDAE90C20DAF82410104478
:101850008842CAF8340003D1DAF82000CAF834000C
:10186000DAF82C100131CAF82C100D218DF808106F
:101870003146FEF757FCDAE90C20DAF82410104460
:101880008842CAF8340003D1DAF82000CAF83400DC
:10189000DAF82C100131CAF82C1031468DF8089076
:1018A000FEF740FCDAE90C01DAF824200844904203
:1018B000CAF8340003D1DAF82000CAF83400DAF8A4
:1018C0002C000130CAF82C00002020609AF8030098
:1018D000B146A04698B3DAF8100080B3DAF81000E9
:1018E00050B3DAE901B4DAF814601BE0DAF81C70DE
:1018F000484639463246FEF715FCB819A04208BFE3
:101900005846CAF81C00DAF8100044F200470138C3
:10191000CAF810009DF80800C4F200072860DAF841
:10192000100048B1D7F800040006F8D5DAF8100026
:101930000028DBD10020F1E700208AF80300DAF864
:101940002C00AB4650B3DAE90845DAF830601BE00A
:10195000DAF83870484639463246FEF7E3FBB819E4
:10196000A84208BF2046CAF83800DAF82C0044F232
:1019700000470138CAF82C009DF80800C4F200079F
:101980007860DAF82C0048B138680006F9D5DAF842
:101990002C000028DCD10020F2E700BF9AF90000FB
:1019A0004E4601284FF00A096CDBC0B202281DD058
:1019B000012864D1DAE90C2021218DF80810314684
:1019C000FEF7B0FBDAE90C20DAF824101044884264
:1019D000CAF8340003D1DAF82000CAF83400DAF883
:1019E0002C100131CAF82C1077211AE0DAE90C200A
:1019F00021218DF808103146FEF794FBDAE90C201E
:101A0000DAF8241010448842CAF8340003D1DAF816
:101A10002000CAF83400DAF82C100131CAF82C1072
:101A200073218DF808103146FEF77CFBDAE90C20B3
:101A3000DAF8241010448842CAF8340003D1DAF8E6
:101A40002000CAF83400DAF82C100131CAF82C1042
:101A500031468DF80890FEF765FBDAE90C01DAF8FB
:101A6000242008449042CAF8340003D1DAF8200058
:101A7000CAF83400DAF82C000130CAF82C00002033
:101A80008AF800009AF901005D46012844464FF0AB
:101A900030086DDBC0B202281ED0012865D1DAE91A
:101AA0000C2021218DF808103146FEF73BFBDAE9C6
:101AB0000C20DAF8241010448842CAF8340003D10C
:101AC000DAF82000CAF83400DAF82C100131CAF82C
:101AD0002C1067211BE000BFDAE90C2021218DF8D2
:101AE00008103146FEF71EFBDAE90C20DAF8241064
:101AF00010448842CAF8340003D1DAF82000CAF84A
:101B00003400DAF82C100131CAF82C1074218DF849
:101B100008103146FEF706FBDAE90C20DAF824104B
:101B200010448842CAF8340003D1DAF82000CAF819
:101B30003400DAF82C100131CAF82C1031468DF837
:101B40000890FEF7EFFADAE90C01DAF824200844ED
:101B50009042CAF8340003D1DAF82000CAF8340001
:101B6000DAF82C000130CAF82C0000208AF80100B5
:101B70009AF902000128FFF645ACC0B201380328EB
:101B80003FF63DACDFE800F0021E3A56DAE90C20E1
:101B900021218DF808103146FEF7C4FADAE90C204D
:101BA000DAF8241010448842CAF8340003D1DAF875
:101BB0002000CAF83400DAF82C100131CAF82C10D1
:101BC00061216AE0DAE90C2021218DF80810314604
:101BD000FEF7A8FADAE90C20DAF82410104488425B
:101BE000CAF8340003D1DAF82000CAF83400DAF871
:101BF0002C100131CAF82C1064214EE0DAE90C20D7
:101C000021218DF808103146FEF78CFADAE90C2014
:101C1000DAF8241010448842CAF8340003D1DAF804
:101C20002000CAF83400DAF82C100131CAF82C1060
:101C300041211AE0DAE90C2021218DF80810314603
:101C4000FEF770FADAE90C20DAF824101044884222
:101C5000CAF8340003D1DAF82000CAF83400DAF800
:101C60002C100131CAF82C1044218DF8081031468F
:101C7000FEF758FADAE90C20DAF82410104488420A
:101C8000CAF8340003D1DAF82000CAF83400DAF8D0
:101C90002C100131CAF82C100D218DF80810314696
:101CA000FEF740FADAE90C20DAF8241010448842F2
:101CB000CAF8340003D1DAF82000CAF83400DAF8A0
:101CC0002C100131CAF82C1031468DF80890FEF71F
:101CD00029FADAE90C01DAF8242008449042CAF81B
:101CE00034007FF487ABDAF82000CAF83400FFF73D
:101CF00081BB00002DE9F04F41F6805140F24C02CB
:101D00000020C2F20021C2F200024FF0320B012487
:101D10004FF028094FF00A0A002604E01036502E32
:101D200008BFBDE8F08F02EB460352F81650D3F817
:101D300004C045B1AD68CCF30F273D40EF1BB7FAA7
:101D400087F74FEA571CDF68BC4540F08D80D3F819
:101D50001080B8F1150FE1D3DF69A7F10A0EBEF1CB
:101D6000500FDBD8DFE80EF0302E2E2E2E2E2E2E2A
:101D70002E2E362E2E2E2E2E2E2E2E2E2A2E2E2E7F
:101D80002E2E2E2E2E2E522E2E2E2E2E2E2E2E2E4F
:101D90005A2E2E2E2E2E2E2E2E2E462E2E2E2E2E1F
:101DA0002E2E2E2E622E2E2E2E2E2E2E2E2E6E2EDF
:101DB0002E2E2E2E2E2E2E2E760000BF8C51C3F8E6
:101DC0001C90ABE7AAE700BFBCF1010F1CBF1427B2
:101DD000DF61A3E7BCF1010F12BFC3F80880D3F89D
:101DE0000880C3F81CB0B8F1FB0F24BF1E27DF61C9
:101DF00094E700BF9F68F92F01EB06078CBF7C605A
:101E0000BC6018619860C3F81CA087E7BCF1010FA3
:101E100014BFC3F80880C3F81CB07FE79F68FA2F8F
:101E20004FF03C0738BF4627DF6177E7BCF1010F71
:101E300016D1B8F16F0FC3F8088024BF3C27DF61CB
:101E40006CE700BFBCF1010F12BFC3F808805A272E
:101E5000DF6163E78F19FC60C3F81CA018615DE7C0
:101E60005027DF615AE700BF0120C3E903C0BDE886
:101E7000F08F02E008C8121F08C1002AFAD170478B
:101E80007047002001E001C1121F002AFBD17047FA
:101E9000F0B50B30154D20F007010024144A0FE077
:101EA00003688B420BD38B4205D95E1A43184768EF
:101EB000C3E9006700E04368136002C004E0021D4C
:101EC00010680028ECD12046002802D1286808B10B
:101ED0000020F0BD064A07481060074A121A22F097
:101EE0000702C0E9002401202860D7E70400002091
:101EF000000000200C01002008030020000000006A
:101F000000000000010203040607080900000000A9
:101F100001020304381F0008000000201000000028
:101F2000721E0008481F000810000020F80600007C
:101F3000821E0008000000000000000000000000F9
:081F400000A24A0400000000A9
:04000005080000ED02
:00000001FF
