:020000040800F2
:100000004805002001010008090100080B01000853
:100010000D0100080F010008110100080000000098
:100020000000000000000000000000006D0E00084D
:100030001501000800000000ED0C00086F0E00081C
:100040001B0100081B0100081B0100081B01000820
:100050001B0100081B0100081B0100081B01000810
:100060001B0100081B0100081B0100081B01000800
:100070001B0100081B0100081B0100081B010008F0
:100080001B0100081B0100081B0100081B010008E0
:100090001B0100081B0100081B0100081B010008D0
:1000A0001B0100081B0100081B0100081B010008C0
:1000B0001B0100081B010008B50F00081B01000808
:1000C0001B0100081B0100081B0100081B010008A0
:1000D0001B0100081B01000839100008551000081A
:1000E0001B0100081B0100081B010008DFF80CD0F1
:1000F00000F03CF8004800470D12000848050020B9
:100100000648804706480047FEE7FEE7FEE7FEE7B1
:10011000FEE7FEE7FEE7FEE7FEE7FEE75D0F00080D
:10012000ED00000840EA01039B0703D009E008C97D
:10013000121F08C0042AFAD203E011F8013B00F8AC
:10014000013B521EF9D27047D2B201E000F8012BF8
:10015000491EFBD270470022F6E710B513460A4647
:1001600004461946FFF7F0FF204610BD064C074D28
:1001700006E0E06840F0010394E807009847103477
:10018000AC42F6D3FFF7B6FF2C1400084C1400085D
:1001900008B50549C9690143034AD1611146C969D6
:1001A0000140009100BF08BD0010024008B505499C
:1001B00089690143034A91611146896901400091AF
:1001C00000BF08BD001002402DE9F04102460B4679
:1001D0001868C0F30F2595FAA5F0B0FA80F47CE01A
:1001E0000120A0402840002876D0082C04D240F2FC
:1001F000011000FA04F106E0A4F108004FF0011626
:10020000864046F080611869D66826EA11260F0AF2
:1002100097FAA7F7B7FA87F700FA07F73E43D660D1
:1002200000BF586802EB116691FAA1FCBCFA8CFC85
:100230004FEA8C084FF00F0C0CFA08FC376827EADD
:100240000C0791FAA1FCBCFA8CFC4FEA8C0C00FA6A
:100250000CFC47EA0C07376000BF5868012802D041
:100260005868092838D1986802EB116691FAA1FC08
:10027000BCFA8CFC4FEA8C084FF0030C0CFA08FC1B
:10028000376827EA0C0791FAA1FCBCFA8CFC4FEA0C
:100290008C0C00FA0CFC47EA0C07376000BFD868EA
:1002A00002EB116691FAA1FCBCFA8CFC4FEA8C08B7
:1002B0004FF0040C0CFA08FC376827EA0C0791FA97
:1002C000A1FCBCFA8CFC4FEA8C0C00FA0CFC47EA4F
:1002D0000C07376000BF00BF641C25FA04F000283B
:1002E0007FF47EAFBDE8F0814FF47A71B0FBF1F29C
:1002F000521E4FF0E0235A6100229A6105221A61D2
:1003000000BF704710B5044600F066FD206020680D
:1003100000F02EFD6060606800F03AFDA06060684B
:1003200000F048FDE06010BD014908607047000022
:1003300034000020016821F080010160704781686D
:1003400021F0800181607047F0B503461446012911
:1003500001D1002516E0042901D1012512E0102960
:1003600001D102250EE0402901D103250AE0B1F5B3
:10037000807F01D1042505E0B1F5806F01D105250D
:1003800000E006252846094D2E5C03F11805721978
:100390001568074E375C0326BE40B543260C044F54
:1003A0003F5CBE4035431560F0BD0000EB13000814
:1003B000F9130008F0B503461446012901D10025C0
:1003C00016E0042901D1012512E0102901D10225EE
:1003D0000EE0402901D103250AE0B1F5807F01D16B
:1003E000042505E0B1F5806F01D1052500E0062563
:1003F0002846094D2E5C03F1180572191568074E41
:10040000375CF026BE40B543260C044F3F5CBE402F
:1004100035431560F0BD0000EB130008F913000828
:1004200070B5012901D1002416E0042901D101246D
:1004300012E0102901D102240EE0402901D1032449
:100440000AE0B1F5807F01D1042405E0B1F5806FA9
:1004500001D1052400E006242346046A054DEE5C24
:100460000A25B540AC43034DED5C02FA05F52C437B
:10047000046270BD00140008F0B50346144601295B
:1004800001D1002516E0042901D1012512E010292F
:1004900001D102250EE0402901D103250AE0B1F582
:1004A000807F01D1042505E0B1F5806F01D10525DC
:1004B00000E006252846094D2E5C03F11805721947
:1004C0001568074E375C0C26BE40B543260C044F1A
:1004D0003F5CBE4035431560F0BD0000EB130008E3
:1004E000F913000810B5024613681C48824208D070
:1004F000B2F1804F05D01A48824202D01948824298
:1005000004D123F070004C6840EA0403134882428F
:1005100008D0B2F1804F05D01148824202D0114874
:10052000824204D123F44070CC6840EA0403136093
:100530008868D06200BF0888906200BF0748824286
:1005400003D10869106300BF00BF00BF506940F0CD
:100550000100506100BF002010BD0000002C0140D0
:100560000004004000080040826822F007020A43AD
:1005700082607047426822F070020A43426070470E
:1005800008B50168009100BF4168009100BF08BD37
:10059000016921F490410161416921F02A01416121
:1005A0007047C16841F40051C1607047416941F032
:1005B000010141617047C16841F02001C16070478D
:1005C0002DE9FF4104460D4601270026204600F094
:1005D00050F8002833D1E96868680843296908435E
:1005E000E16841F20C6291430843E060A868216928
:1005F00021F440510143216100BF6869616921F420
:1006000040710143616100BF6846FFF77BFE0E4801
:10061000844201D1039E08E00C48844201D1029E2D
:1006200003E00B48844200D1029E46B1286830B1F5
:100630000027314620462A6800F025F800BF3846DA
:1006400004B0BDE8F08100000038014000440040E3
:100650000048004001460868C0F34010704701465A
:100660000868C0F38010704701460868C0F3C010E6
:1006700070470146C868C0F3403070470146C868FB
:10068000C0F34010704770B501EBC10303EB0113D9
:100690009400B3FBF4F301EBC10404EB01149500E7
:1006A000B4FBF5F46425B4FBF5F404EBC40505EBE9
:1006B0000414A3EB8403322404EB03136424B3FB7C
:1006C000F4F303F0F00301EBC10404EB0114950013
:1006D000B4FBF5F46425B4FBF5F403EB041401EB6F
:1006E000C10303EB01139500B3FBF5F301EBC10567
:1006F00005EB01159600B5FBF6F56426B5FBF6F59E
:1007000005EBC50606EB0515A3EB8503322505EBC6
:1007100003136425B3FBF5F303F00F0323449BB2EB
:10072000836070BD4160704708B540200549496944
:100730000143044A5161114649690140009100BFDB
:1007400000BF08BD0010024000B585B01421684606
:10075000FFF701FD1020FFF729FD2020FFF726FD00
:100760000420FFF723FD0820FFF720FD1548C0F304
:100770000F21154A516100BF009001200190022015
:1007800002900020039069461046FFF71DFD0F48B8
:1007900000900020019069460B48FFF715FD0C48BA
:1007A00000900020019069460A48FFF70DFD0A48B5
:1007B00000900020019069460848FFF705FD05B04C
:1007C00000BD00002000200400100140C000C00453
:1007D0003F331C0400080140F737F304000C0140CC
:1007E00000B58BB0142106A8FFF7B5FC142101A8B1
:1007F000FFF7B1FC4FF40060FFF7D8FC0420FFF7CF
:10080000D5FC29480190082002900120059001A9FB
:100810002648FFF7D9FC01212548FFF7A5FE4FF434
:10082000803201212248FFF78FFD0022012120485C
:10083000FFF722FE002201211D48FFF7BBFD002229
:1008400001211B48FFF7ECFD4FF4803210211848BE
:10085000FFF77AFD002210211548FFF70DFE002258
:1008600010211348FFF7A6FD002210211048FFF7C2
:10087000D7FD0020ADF8180007904FF6FF700890E4
:10088000002009900A9006A90948FFF72BFE0848A6
:10089000FFF750FD00210648FFF76CFE0448FFF704
:1008A0004EFD0BB000BD0000030003040008014032
:1008B000002C014000B58BB0142106A8FFF74BFCBB
:1008C000142101A8FFF747FC0120FFF761FC042079
:1008D000FFF76CFC0820FFF769FC30480190082006
:1008E00002900120059001A92D48FFF76DFC40F60C
:1008F00008000190082002900120059001A92948D4
:10090000FFF762FC01218807FFF72EFE4FF48032CB
:1009100001218807FFF718FD002201218807FFF752
:10092000ABFD002201218807FFF744FD00220121D1
:100930008807FFF775FD4FF4803210218806FFF716
:1009400003FD002210218806FFF796FD00221021EA
:100950008806FFF72FFD002210218806FFF760FDB3
:100960000020ADF8180007904FF6FF7008900020A7
:10097000099006A94FF08040FFF7B4FD4FF080408A
:10098000FFF7D8FC00214FF08040FFF7F3FD4FF058
:100990008040FFF7D4FC0BB000BD00008000800455
:1009A00000080140000C014000B58BB0142106A8DE
:1009B000FFF7D1FB142101A8FFF7CDFB0220FFF7C1
:1009C000E7FB0420FFF7F2FB4CF2C0000190082087
:1009D00002900120059001A92448FFF7F5FB0121B1
:1009E0002348FFF7C1FD4FF4803201212048FFF773
:1009F000ABFC002201211E48FFF73EFD4FF47002C0
:100A000001211B48FFF7D6FC002201211848FFF7FF
:100A100007FD4FF4803210211548FFF795FC0022A6
:100A200010211348FFF728FD4FF4700210211048E1
:100A3000FFF7C0FC002210210D48FFF7F1FC002059
:100A4000ADF8180007900890099006A90848FFF72C
:100A500049FD0748FFF76EFC00210548FFF78AFDB6
:100A60000348FFF76CFC0BB000BD0000000801401C
:100A70000004004030B58BB0142106A8FFF76BFBD3
:100A8000142101A8FFF767FB0420FFF781FB082072
:100A9000FFF78CFB4CF2C00001900820029001206F
:100AA000059001A92C48FFF78FFB00F083FB05465A
:100AB0000022114600F0FAF8044621461E2000F0FC
:100AC00081FB1E2000F068FB01212448FFF74CFD4C
:100AD0004FF4803201212148FFF736FC002201212A
:100AE0001E48FFF7C9FC4FF4700201211B48FFF7B5
:100AF00061FC002201211948FFF792FC4FF480327B
:100B000010211648FFF720FC002210211348FFF7A0
:100B1000B3FC4FF4700210211048FFF74BFC002289
:100B200010210E48FFF77CFC0020ADF8180007905C
:100B3000012008900020099006A90848FFF7D2FC80
:100B40000648FFF7F7FB00210448FFF713FD0348B1
:100B5000FFF7F5FB0BB030BD000C01400008004072
:100B600030B58DB01C2106A8FFF7F5FA142101A8B5
:100B7000FFF7F1FA4FF40030FFF70AFB0420FFF70C
:100B800015FB40F2044001900920029003200390DD
:100B90000020049001A91948FFF716FB40F6080051
:100BA00001900420029001A91448FFF70DFB00F00A
:100BB00001FB05460022114600F078F80446214664
:100BC000262000F0FFFA262000F0E6FA4FF4E1308C
:100BD000069000200790089009900C200A900020B1
:100BE0000B900C9006A90648FFF7EAFC0448FFF7B3
:100BF000CFFC0348FFF7D5FC0DB030BD0008014025
:100C00000044004030B58DB01C2106A8FFF7A3FAC0
:100C1000142101A8FFF79FFA4FF48020FFF7B8FADC
:100C20000820FFF7C3FA1D48019009200290032015
:100C300003900020049001A91948FFF7C5FA19484C
:100C400001900420029001A91548FFF7BDFA00F0B9
:100C5000B1FA05460022114600F028F80446214664
:100C6000272000F0AFFA272000F096FA4FF4E13089
:100C7000069000200790089009900C200A90002010
:100C80000B900C9006A90848FFF79AFC0648FFF75E
:100C90007FFC0548FFF785FC0DB030BD040004045F
:100CA000000C01400800080400480040F0B503466D
:100CB0000C4603F00701C1F10700042801D9042004
:100CC00001E0C1F107000646081D072801D20020F7
:100CD00000E0C81E05460120B040401E2040A8404C
:100CE0000127AF407F1E17403843F0BD704700001A
:100CF0002DE9F04104460D460026274600BF0BE0D3
:100D000000BF0A48FFF7B0FC0028FAD017F8011B13
:100D10000648FFF707FD761CAE42F1D300BF03483B
:100D2000FFF79DFC0028FAD0BDE8F08100480040A4
:100D30002DE9F04104460D460026274600BF0BE092
:100D400000BF0A48FFF790FC0028FAD017F8011BF3
:100D50000648FFF7E7FC761CAE42F1D300BF03481C
:100D6000FFF77DFC0028FAD0BDE8F0810044004088
:100D7000014600BF0448406800F0F0000009034A43
:100D8000125C21FA02F070470010024013140008B0
:100D9000014600BF0548406800F4E060044A02EBE9
:100DA0001020027821FA02F0704700000010024083
:100DB00023140008014600BF0548406800F4605055
:100DC000044A02EBD020027821FA02F070470000BA
:100DD000001002402314000810B5002400BF0B4887
:100DE000406800F00C0020B1042804D0082808D185
:100DF00003E0074C07E0064C05E000F00BF8044662
:100E000001E0034C00BF00BF204610BD00100240AF
:100E100000127A000021002200BF1148406800F44F
:100E2000803002461AB1B2F5803F0CD101E00D4985
:100E30000BE000BF0A484068C0F34040401C0A4B2A
:100E4000B3FBF0F101E0074900BF00BF00BF044859
:100E5000406800F47010022303EB90404843704751
:100E60000010024000093D0000127A0070477047F0
:100E700010B501203649096821F007010143344AC1
:100E8000116000BF00BF00BF3148006800F00700DC
:100E90000128F8D100BF2F48006840F480302D4968
:100EA000086000BF00BF00BF2A480068C0F3404090
:100EB0000028F8D04FF48030C100264A526822F44E
:100EC0007C1200F440330B431A43224B5A6000BF9C
:100ED00000BF1846006840F080701946086000BFE7
:100EE00000BF00BF1B480068C0F340600028F8D076
:100EF00000201849496821F0F0010143154A51606A
:100F000000BF10151146496821F4E06101435160AA
:100F100000BF00201146496821F46051014351602F
:100F200000BF02201146496821F0030101435160CE
:100F300000BF00BF00BF0748406800F00C00082851
:100F4000F8D10548FFF7D0F90348FFF7EDF910BDD8
:100F500000200240001002400048E80111480068EB
:100F600040F001000F490860084640680E490840FB
:100F70000C494860084600680C4908400949086067
:100F80000846006820F4802008600846406820F485
:100F9000FE0048604FF41F008860C80304490860E1
:100FA00070470000001002400000FFF8FFFFF6FE4F
:100FB00008ED00E000201B49086000BF1948103808
:100FC000006800F01000102814D11748007840B9CC
:100FD00016480068401C1549086001201449087033
:100FE0001CE0124800680A301049086003201049CC
:100FF000087013E00C48007840B90C480068401EA7
:101000000A49086002200A49087007E0074800689A
:101010000A3806490860042005490870012005497E
:1010200008707047100800400800002004000020ED
:10103000090000200200002010B50548FFF70AFB58
:1010400028B10348FFF71AFB08B100F011F810BDF2
:101050000044004010B50548FFF7FCFA28B10348EA
:10106000FFF70CFB08B100F04DF810BD0048004040
:1010700010B500BF1D484068C0B204460A2C2BD1F1
:101080001B480068012807D140211A48FFF763F880
:1010900000201749086010BD15490868411C144A12
:1010A000116014490C54012013490870104600685F
:1010B0001249087040211248FFF74DF80C480268A9
:1010C0000C490F48FFF72EF840210A48FFF743F874
:1010D00000200749086007E034B105490868411C51
:1010E000034A116003490C5400BFD4E70044004098
:1010F00010000020380000202C00002014000020E8
:10110000B800002010B500BF1D484068C0B20446BA
:101110000A2C2BD11B480068012807D140211A480E
:10112000FFF719F800201749086010BD1549086835
:10113000411C144A116014490C54012013490870D1
:10114000104600681249087040211248FFF703F862
:101150000C4802680C490F48FEF7E4FF40210A489A
:10116000FEF7F9FF00200749086007E034B10549A0
:101170000868411C034A116003490C5400BFD4E7BE
:101180000048004018000020780000202D000020BA
:101190001C000020F8000020002809DB00F01F02DE
:1011A000012191404209920002F1E022C2F80011AF
:1011B0007047000002480068C0F30220704700003A
:1011C0000CED00E010B5002804DB0A07130E054AF9
:1011D000135406E00A07140E034A00F00F031B1F06
:1011E000D45410BD00E400E018ED00E002E008C8AF
:1011F000121F08C1002AFAD170477047002001E091
:1012000001C1121F002AFBD1704700000120FEF728
:10121000CDFF4FF08050FEF7BBFF052002465A4B32
:1012200019684FF6FF031940584B0B4343EA02215C
:10123000554B196000BF00BF5548406820F0E06082
:10124000534948600846406840F00070486000BF5D
:10125000FFF70EFE00BF4FF0E020006940F00200F3
:101260004FF0E021086100BFFFF76EFAFFF75CFA6C
:10127000FFF700FCFFF798FBFFF7B2FAFFF71AFB46
:10128000FFF76EFCFFF7BEFC4248FFF779F94148D3
:10129000FFF791F93F48FFF789F93F48FFF770F9E9
:1012A0003D48FFF788F93C48FFF780F900BF6FF031
:1012B00001003A49086100BF00BF0846006820F0FD
:1012C0000200086000BF00BF0846C06840F001008F
:1012D000C86000BF00BF0846006840F00100086019
:1012E00000BF2F48C0F30F212E4A116100BF49E013
:1012F0002D480078012807D12C4801782C48FFF7A9
:10130000F7FC0020284908702A480078012807D1F6
:10131000294801782948FFF70BFD0020254908706E
:10132000274890F9000000282BDD254890F900009F
:10133000012806D002280DD0032814D004281CD17F
:1013400016E004211FA0FFF7F3FC04211DA0FFF706
:10135000CFFC12E004211DA0FFF7EAFC04211BA032
:10136000FFF7C6FC09E004211AA0FFF7E1FC04E046
:1013700004211AA0FFF7DCFC00BF00BF00201049C9
:10138000087000BFB4E700000CED00E00000FA05B3
:1013900000000140004400400048004000080040B8
:1013A00020002004001001402C0000201400002028
:1013B000B80000202D0000201C0000207800002034
:1013C00009000020216C0D0A0000000021720D0AA6
:1013D00000000000214C0D0A0000000021520D0AFF
:1013E00000000000081C3044586C8000000000041D
:1013F00004040000080000000800000800000008C5
:1014000000020406080A0C000102030405066F6BC3
:101410000D0A0000000000000000000102030406A5
:101420000708090000000001020304004C14000832
:101430000000002038000000EC11000884140008AF
:101440003800002010050000FC110008000000001A
:101450000000000000000000FFFFFFFF0000000090
:10146000000000000000000000000000000000007C
:10147000000000000000000000000500000F000058
:0414800000A24A0478
:04000005080000ED02
:00000001FF
