:020000040800F2
:100000001007002001010008090100080B01000889
:100010000D0100080F010008110100080000000098
:10002000000000000000000000000000250500089E
:10003000150100080000000021050008290500083E
:100040001B0100081B0100081B0100081B01000820
:100050001B0100081B0100081B0100081B01000810
:100060001B0100081B0100081B0100081B01000800
:100070001B0100081B0100081B0100081B010008F0
:100080001B0100081B0100081B0100081B010008E0
:100090001B0100081B0100081B0100081B010008D0
:1000A0001B010008C90600081B0100081B0100080D
:1000B000110700085D070008990700081B010008E8
:1000C0001B0100081B0100081B0100081B010008A0
:1000D0001B0100081B010008110800082D0800087A
:1000E0001B0100081B0100081B010008DFF80CD0F1
:1000F00000F02AF8004800476D09000810070020AA
:100100000648804706480047FEE7FEE7FEE7FEE7B1
:10011000FEE7FEE7FEE7FEE7FEE7FEE779060008FA
:10012000ED00000840EA01039B0703D009E008C97D
:10013000121F08C0042AFAD203E011F8013B00F8AC
:10014000013B521EF9D27047064C074D06E0E068AD
:1001500040F0010394E8070098471034AC42F6D30E
:10016000FFF7C8FF84270008A42700082DE9F04FF7
:10017000B1F8018098FAA8F3B3FA83F338FA03F7D9
:100180004FD040F2011C4FF0011E4FF00F0A4FF00C
:10019000040903E0013338FA03F242D028FA03F5E8
:1001A000ED07F7D0B3F108050EFA05F545F08066C6
:1001B0004D6838BF0CFA03F6082D0DD1370AD1F877
:1001C00010B0C46897FAA7F7B7FA87F724EA16249D
:1001D0000BFA07F73C43C460370E96FAA6F6B6FA58
:1001E00086F63C58B6000AFA06F224EA020205FA3C
:1001F00006F442EA04053D504A6842F00802092A22
:10020000C8D18A680324B44025EA0404B2402243DA
:10021000C251CC6809FA06F5AA43B4402243C25140
:10022000B8E70020BDE8F08FF0B585B0044600685F
:100230000D4620F00100206001A800F07BF8DDF8F9
:100240000CE04DF68361C4F21B31AEFB0113D5E91E
:10025000012C6168980C21F03F0141EA93414FF471
:1002600096766160704344F6D356216AC1F2620605
:10027000A0FB060621F03F0048F2A061C0F2010198
:100280004F1CB609BA4238BF9E0C731C18438A42F1
:1002900020620FD91920BCF1000F08BF0320504382
:1002A000BEFBF0F0010508BF012040EA0C0040F45D
:1002B000004007E05000BEFBF0F040F6FC71084241
:1002C00008BF0420E1694CF6FF7291430843E061E6
:1002D00005F10C0328680ECBA76848F2FF36B74338
:1002E00019433943A160216821F01A0108432060B5
:1002F000206840F001002060206820F4806040EA1F
:1003000002010020216005B0F0BD000044F6D35189
:10031000C1F26201A0FB01014FF0FF3000EB911030
:100320004EF21001CEF200014860002088600520E6
:100330000860704741F2040CC4F2020CDCF80020A3
:1003400002F00C02082A41F20022C0F27A0215D112
:10035000DCF80030DB0304D440F60012C0F23D02AA
:1003600006E0DCF80030C3F340430133B2FBF3F2A4
:10037000DCF80030C3F3834302335A430260DCF8F5
:10038000003042F26C71C3F30313C0F60001C95C84
:1003900042F27C7322FA01F14160DCF80020C0F6E1
:1003A0000003C2F302229A5C21FA02F28260DCF8B6
:1003B0000020C2F3C2229A5CD140C16070470000A5
:1003C00040F20801C2F200010860704780B540F2B7
:1003D000FF7E0368C4F2000E42F6004C02467045F0
:1003E000C4F2010C05DCB2F1804F0AD040F20040AB
:1003F00003E0624505D040F60000C4F200008242EE
:1004000003D1486823F070030343724505DCB2F161
:10041000804F0AD040F2004003E0624505D040F62C
:100420000000C4F20000824203D1C86823F4407384
:100430000343136088686245D0620888906202D1E5
:100440000869CCF83000506940F00101002051618A
:1004500080BD0000B0B584B00446C06880045BD4A1
:10046000E0680D4641F20C618843D5E9011CD5E9ED
:100470000332084318431043D5F814E0E0602069C4
:1004800020F4405040EA0C002061606920F4407084
:1004900040EA0E0060616846FFF74CFF44F20040FE
:1004A000C4F2000084420FD044F60000C4F2000001
:1004B000844209D043F60000C4F2010084420CBF1C
:1004C0000398002010B927E0029828B3296819B3CF
:1004D000192250438900B0FBF1F048F21F51C5F2D8
:1004E000EB11A0FB01235A094FF69C73C0F6FF7372
:1004F00002FB0300322303EB0010A0FB0101F020FC
:1005000000EA511000EB0210C1F3431180B208441D
:10051000A060002004B0B0BD012004B0B0BD000058
:10052000704700007047000040F25000C2F2000027
:10053000016900291CBF01310161016B00291CBF49
:1005400001310163016D00291CBF01310165016F9B
:1005500000291CBF01310167D0F8901000291CBF91
:100560000131C0F89010704710B542F20000C4F29B
:1005700002000168012262F302010160016801F0DA
:10058000070101290ED0016801F00701012909D0F6
:10059000016801F00701012904D0016801F0070199
:1005A0000129EBD141F20400C4F2020050F8041C0E
:1005B00041F4803140F8041C50F8041C89030CD429
:1005C00050F8041C89035CBF50F8041C5FEA8131B9
:1005D00003D450F8041C8903EED50168092262F3A4
:1005E0001541016050F8041C41F0807140F8041C72
:1005F00050F8041C89010CD450F8041C89015CBF1C
:1006000050F8041C5FEA811103D450F8041C8901DE
:10061000EED50168042221F0F0010160016862F367
:100620000A2101600168022221F460510160016821
:1006300062F30101016000BF016801F00C010829AB
:100640000ED0016801F00C01082909D0016801F001
:100650000C01082904D0016801F00C010829EBD134
:1006600044F60004C0F2E8142046FFF74FFE20468F
:10067000BDE81040FFF7A4BE41F20000C4F2020042
:100680000168002241F0010101604168CFF6FF02DC
:100690001140416001684FF6FF72CFF6F6621140DB
:1006A0000160016821F480210160416821F4FE01AC
:1006B00041604FF41F0181604EF60850CEF20000F9
:1006C0004FF000610160704742F60040C4F2010043
:1006D0000021016100684FF0FF3210F0100040F27D
:1006E000F400C2F20000016808BF012211444FF07B
:1006F000020208BF0122016040F2F800C2F20000CD
:10070000027040F20910C2F200000121017070472E
:100710001020C4F20000002101604FF0804000680A
:100720004FF0FF3210F0100040F2FC00C2F2000067
:10073000016808BF012211444FF0020208BF0122E4
:10074000016040F21000C2F20000027040F2091095
:10075000C2F20000012101707047000040F2004029
:10076000C4F200000021016100684FF0FF3210F078
:10077000100040F20010C2F20000016808BF012220
:1007800011444FF0020208BF0122016040F2110043
:10079000C2F2000002707047B0B540F60000C4F22B
:1007A00000000021016140F20811C2F2000100685E
:1007B000097840F2041CC2F2000CDCF800E00A22C6
:1007C00000294FF003036FF009044FF0040500F017
:1007D000100008BF012208BF012308BF4FF0FF34FB
:1007E000002908BF022500281CBF14461D460EEB39
:1007F0000400CCF8000040F21200C2F200000570C4
:1008000040F20910C2F2000001210170B0BD0000E9
:1008100044F20040C4F200000168890646BFC06887
:100820005FEA8060704700F00FB8000044F60000F7
:10083000C4F200000168890646BFC0685FEA8060B4
:10084000704700F023B8000010B582B044F20440B5
:10085000C4F2000040F210040168C2F20004D4E9BE
:1008600006208DF807100DF10701FFF75BFCD4E9B6
:100870000601E26808449042E06101D1A068E061AD
:1008800060690130606102B010BD000010B582B037
:1008900044F60400C4F2000040F210040168C2F201
:1008A0000004D4E90D208DF807100DF10701FFF7C2
:1008B00039FCD4E90D01A26A08449042A06301D139
:1008C000606AA063206B0130206302B010BD00009D
:1008D00010B540F2500040F60001C2F200004FF0A7
:1008E0000A0EC4F2010142F22003C0F81CE0C0E984
:1008F00000138B68C0F83CE0C3F340138361C3600E
:1009000041F21003016243628B6840F2100CC0F2A6
:10091000104CC3F300130CF170128363C36201F532
:100920000063426441F20802C0F85CE00364C4F270
:10093000010214680366C4F3C0340CF130138465FB
:10094000C464C0F87CE043661268C0F89CE0C2F35F
:1009500080328267C266C0E9201C8968C1F3003119
:10096000C0F89810C0F88C1010BD00008EB0642044
:10097000642401F0C5FE40F2100AC2F2000ACAF86F
:10098000080058B100F16401CAE903140021CAF853
:1009900014100121CAE90610CAF82000642064245A
:1009A00001F0AEFECAF8240058B100F16401CAE9B2
:1009B0000A140021CAF830100121CAE90D10CAF842
:1009C0003C0041F21808C4F20208D8F800004EF6C4
:1009D0000C5340F00100C8F80000D8F80000CEF237
:1009E000000300F0010002900298D8F804004FF6CE
:1009F000FF0140F08050C8F80400D8F80400042239
:100A000000F08050029002981868C4F20102084079
:100A100040F0052040F47A0018601068022640F685
:100A2000000744F6040444F2004940F2184566F316
:100A30001A60C4F20107C4F20004C4F20009C4F24F
:100A400000051060FFF790FD4EF20011CEF200019C
:100A500051F8F00C4FF0000B40F0020041F8F00CA0
:100A6000CDF818B0D8F800004FF4005140F0100055
:100A7000C8F80000D8F8000000F0100009900998AC
:100A8000D8F8000040F02000C8F80000D8F80000B6
:100A900000F0200009900998D8F8000040F0040008
:100AA000C8F80000D8F8000000F004000990099888
:100AB000D8F8000040F00800C8F80000D8F800009E
:100AC00000F008000990099841F21400C4F20100F6
:100AD00001602020C0F220400290012003A981E89B
:100AE000410807F5006602AF30463946FFF73EFB86
:100AF0002020C0F2204000F1A010029008200390B6
:100B00000120069030463946FFF730FB40F20F30A7
:100B100040F60006C0F20C40C4F20106CDE9020B1B
:100B200030463946FFF722FB43F23000C0F2104056
:100B30000290082003900120069030463946FFF7C6
:100B400015FB43F2F770C0F2F04006F58066CDE980
:100B5000020B304639460096FFF708FB58F8040CA4
:100B600009A940F0400048F8040C58F8040C00F0C3
:100B7000400002900298CDF818B0CDE904BBCDE951
:100B800002BBCDE90BBBD8F8040040F00400C8F864
:100B90000400D8F8040000F0040001900198D8F88F
:100BA000000040F00800C8F80000D8F8000000F08D
:100BB0000800019001984CF2C000099008200A90AA
:100BC00001200D903046FFF7D1FA4EF60C50CEF2D0
:100BD000000000684EF21940CEF200004EF20016FE
:100BE00080F805B04FF08040CEF200063060D5F8B6
:100BF000F003012262F3020040F61801C5F8F00389
:100C0000C4F200010868012762F301000860086867
:100C100020F00C000860086840F0F0000860886868
:100C200020F00A008860086867F3092008600868F7
:100C300020F440600860086840F4704008608868EC
:100C400020F0A000886005F57A7002A9ADF808B020
:100C5000CDE903B7CDF814B0FFF7B8FBD5F8E8033A
:100C600009A920F08000C5F8E803D5F8EC0320F0CE
:100C70007000C5F8EC03D5F8F00320F08000C5F84B
:100C8000F003CDF818B0CDE904BBCDE902BBCDE946
:100C90000BBBD8F8040040F00200C8F80400D8F8F4
:100CA000040000F0020001900198D8F8000040F024
:100CB0000400C8F80000D8F8000000F0040001901B
:100CC00001984CF2C000099008200A9040F60000FC
:100CD000C4F201000D97FFF749FA4EF60C50CEF220
:100CE000000000684EF21940CEF2000080F804B017
:100CF0004FF00050306055F8100C012161F30200F4
:100D000045F8100C2868012761F301002860286865
:100D1000182620F00C0028602868C4F2000640F075
:100D2000F0002860A86802A920F00A00A8602868DE
:100D300067F309202860286820F44060286028684C
:100D400040F470402860A86820F0A000A86006F574
:100D50007A70ADF808B0CDE903B7CDF814B0FFF75D
:100D600035FBD6F8E80309A920F08000C6F8E803AF
:100D7000D6F8EC0320F07000C6F8EC0355F8100C20
:100D800020F0800045F8100CCDF808B0CDE90BBB81
:100D9000D8F8000040F40060C8F80000D8F800005F
:100DA00000F4006001900198D8F8000040F00400C1
:100DB000C8F80000D8F8000000F004000190019885
:100DC0000320C0F20340099008200A9040F600007A
:100DD000C4F201000D97FFF7C9F94EF60C50CEF2A0
:100DE000000000684EF21940CEF200004EF20011F1
:100DF00080F800B04FF00070CEF2000142F61846C5
:100E00000860C4F2010656F8100C012161F30200DB
:100E100046F8100C3068012561F30100306030683D
:100E200002A920F00C003060306840F0F000306023
:100E3000B06820F00A00B060306865F309203060C7
:100E4000306820F440603060306840F470403060BA
:100E5000B06820F0A000B060A6F11800CDE903B59D
:100E6000CDE905BBFFF7B2FA56F8180C09AF40F010
:100E7000800046F8180C56F8140C394620F0700023
:100E800046F8140C56F8100C20F0800046F8100CB0
:100E9000CDF818B0CDE904BBCDE902BBCDE90BBB61
:100EA000D8F80400082640F00100C8F80400D8F87B
:100EB000040000F0010001900198D8F8000040F013
:100EC0000400C8F80000D8F8000000F00400019009
:100ED0000198D8F8000040F00800C8F80000D8F8E1
:100EE000000000F00800019001982020C0F220408E
:100EF00000F16010099040F60000C4F201000A966B
:100F00000D95FFF733F940F60800CDE90906009882
:100F100039460D95FFF72AF94EF60C50CEF2000037
:100F200000684EF21940CEF200004EF2001680F832
:100F300003B04FF08050CEF2000618213060C4F2AA
:100F4000000151F8100C012262F3020041F8100C6C
:100F500008680D4662F3010008600868012220F06D
:100F60000C000860086840F0F0000860886820F015
:100F70000A008860086862F309200860086820F4A5
:100F800040600860086840F470400860886820F09D
:100F9000A000886002A94FF08040ADF808B0CDE90C
:100FA00003B2CDF814B0FFF711FA4FF08041086892
:100FB00009AF20F08000086055F8140C394620F085
:100FC000700045F8140C55F8100C20F0800045F81E
:100FD000100CCDF834B0D8F8040040F6000540F409
:100FE0000030C8F80400D8F80400C4F2010500F489
:100FF000003002900298D8F8000040F00400C8F8D1
:101000000000D8F8000000F004000290029840F2BE
:101010000440099009200A900320CDE90B0B2846D3
:10102000FFF7A4F840F60800099004200A9028462B
:101030003946FFF79BF84EF60C50CEF200000068E0
:101040004EF21940CEF2000080F80DB040207060E2
:101050004FF46120CDE9020B0C20CDE9060B02A96B
:101060004846CDE904BBCDF820B0FFF7F3F9D9F835
:101070001000032520F49040C9F81000D9F814009E
:10108000C0F2034520F02A00C9F81400D9F80C007A
:1010900009AF40F40050C9F80C00CDF834B0D8F8CE
:1010A0000400394640F48020C8F80400D8F8040051
:1010B00000F4802002900298D8F8000040F0080068
:1010C000C8F80000D8F8000000F00800029002986C
:1010D00005F1011009900920009E0A900320CDE936
:1010E0000B0B3046FFF742F805F105100990042577
:1010F000304639460A95FFF739F84EF60C50CEF2D5
:10110000000000684EF21940CEF200004EF20011CD
:1011100080F80EB08020CEF2000148604FF4E1303C
:10112000CDE9020B0C20CDE9060B09F5806002A980
:10113000CDE904BBCDF820B0FFF78CF9E06809A930
:1011400020F49040E060206920F02A002061A0682F
:1011500040F40050A060CDF834B0D8F8000040F062
:101160000800C8F80000D8F8000000F0080002905D
:1011700002980320C0F20340099009200A9003203E
:10118000CDE90B0504253046C4F20105FEF7EEFF5C
:10119000286845F2004640F0E06040F00200286018
:1011A000D8F80400C4F2000640F40010C8F80400A7
:1011B000D8F8040002A900F4001002900298F06828
:1011C00020F00100F060306820F0400030603068AE
:1011D00020F08000306048F2A060C0F20100CDE94C
:1011E000030B4FF4806006904FF480400790304628
:1011F000CDF808B0CDF814B0FFF716F8F06820F07D
:10120000FE00F060FFF764FBD9F80000029002983E
:10121000D9F804000290029844F20C40C4F2000095
:1012200050E8001F41F0200140E80012AAB150E848
:10123000001F41F0200140E8001272B150E8001F89
:1012400041F0200140E800123AB150E8001F41F09F
:10125000200140E80012002AE2D144F21440C4F216
:10126000000000BF50E8001F41F0010140E80012FB
:10127000AAB150E8001F41F0010140E8001272B12C
:1012800050E8001F41F0010140E800123AB150E877
:10129000001F41F0010140E80012002AE2D1D9F814
:1012A00000040290029820680290029844F60C0014
:1012B000C4F2000050E8001F41F0200140E8001295
:1012C000AAB150E8001F41F0200140E8001272B1BD
:1012D00050E8001F41F0200140E800123AB150E808
:1012E000001F41F0200140E80012002AE2D144F63C
:1012F0001400C4F2000000BF50E8001F41F00101DB
:1013000040E80012AAB150E8001F41F0010140E896
:10131000001272B150E8001F41F0010140E80012D4
:101320003AB150E8001F41F0010140E80012002AE4
:10133000E2D140F618026FF00100C4F2000240F260
:10134000184342F8080CC4F20003D3F8E8134FF036
:101350000A0B21F00201C3F8E81352F80C1C2126F5
:1013600041F0010142F80C1CD3F8E813182241F0B7
:101370000101C3F8E81343F8080CC4F20002D2F8E4
:10138000E81302AF21F00201C2F8E81353F80C1C75
:1013900041F0010143F80C1CD2F8E81341F00101BF
:1013A000C2F8E813296841F0E06141F44071296016
:1013B00042F8080C4FF08040016840F2F00521F03F
:1013C0000201016052F80C1CC2F2000541F001015B
:1013D00042F80C1C016841F00101016040F6000177
:1013E0004FF40050C4F20101C1F8100808E000BF3A
:1013F000DAF830000130CAF8300000208AF8020024
:1014000001F0B0F82868B0F5007F80F20381411E3A
:101410001F2900F2E7810D22DFE811F02000C80249
:101420007205C802720572057205720572057205B1
:1014300072057205720572057205F2037205720576
:1014400072057205720572057205720572057205E4
:1014500072057205720572057205C802D9F800009E
:1014600000060CD4D9F8000000065CBFD9F80000D3
:101470005FEA006003D4D9F800000006EED54720EB
:10148000C9F80400D9F8000000060CD4D9F800000F
:1014900000065CBFD9F800005FEA006003D4D9F809
:1014A00000000006EED53020C9F80400D9F800008D
:1014B00000060CD4D9F8000000065CBFD9F8000083
:1014C0005FEA006003D4D9F800000006EED52020C2
:1014D000C9F80400D9F8000000060CD4D9F80000BF
:1014E00000065CBFD9F800005FEA006003D4D9F8B9
:1014F00000000006EED55820C9F80400D9F8000015
:1015000000060CD4D9F8000000065CBFD9F8000032
:101510005FEA006003D4D9F800000006EED52D2064
:10152000C9F80400D9F8000000060CD4D9F800006E
:1015300000065CBFD9F800005FEA006003D4D9F868
:1015400000000006EED53220C9F80400D9F80000EA
:1015500000060CD4D9F8000000065CBFD9F80000E2
:101560005FEA006003D4D9F800000006EED5302011
:10157000C9F80400D9F8000000060CD4D9F800001E
:1015800000065CBFD9F800005FEA006003D4D9F818
:1015900000000006EED53020C9F80400D9F800009C
:1015A00000060CD4D9F8000000065CBFD9F8000092
:1015B0005FEA006003D4D9F800000006EED5C9F850
:1015C0000420D9F8000000060CD4D9F80000000669
:1015D0005CBFD9F800005FEA006003D4D9F80000CE
:1015E0000006EED5C9F804B0D9F80000400600F1B5
:1015F0008784D9F8000040065CBFD9F800005FEA94
:10160000406000F17D84D9F800004006ECD500F080
:1016100077BC00BFB0F5005F10DBB0F5803F80F213
:101620002982B0F5005F4FF00D0200F0BF81B0F5E8
:10163000804F00F0BB8100F063BC00BFB0F5007FBD
:101640004FF00D0200F0B281B0F5806F00F0AE8176
:10165000B0F5805F40F05484D9F8000000060CD447
:10166000D9F8000000065CBFD9F800005FEA00600E
:1016700003D4D9F800000006EED54720C9F80400CD
:10168000D9F8000000060CD4D9F8000000065CBFB1
:10169000D9F800005FEA006003D4D9F80000000622
:1016A000EED53020C9F80400D9F8000000060CD4AB
:1016B000D9F8000000065CBFD9F800005FEA0060BE
:1016C00003D4D9F800000006EED52020C9F80400A4
:1016D000D9F8000000060CD4D9F8000000065CBF61
:1016E000D9F800005FEA006003D4D9F800000006D2
:1016F000EED55A20C9F80400D9F8000000060CD431
:10170000D9F8000000065CBFD9F800005FEA00606D
:1017100003D4D9F800000006EED53220C9F8040041
:10172000D9F8000000060CD4D9F8000000065CBF10
:10173000D9F800005FEA006003D4D9F80000000681
:10174000EED53020C9F80400D9F8000000060CD40A
:10175000D9F8000000065CBFD9F800005FEA00601D
:1017600003D4D9F800000006EED53020C9F80400F3
:10177000D9F8000000060CD4D9F8000000065CBFC0
:10178000D9F800005FEA006003D4D9F80000000631
:10179000EED5C9F80420D9F8000000060CD4D9F819
:1017A000000000065CBFD9F800005FEA006003D4C7
:1017B000D9F800000006EED5C9F804B0D9F8000049
:1017C000400600F19D83D9F8000040065CBFD9F8BF
:1017D00000005FEA406000F19383D9F80000400602
:1017E000ECD58DE340284FF00D0200F0DF80B0F51E
:1017F000807F40F08583D9F8000000060CD4D9F82A
:10180000000000065CBFD9F800005FEA006003D466
:10181000D9F800000006EED54720C9F80400D9F831
:10182000000000060CD4D9F8000000065CBFD9F80F
:1018300000005FEA006003D4D9F800000006EED58E
:101840003020C9F80400D9F8000000060CD4D9F8FB
:10185000000000065CBFD9F800005FEA006003D416
:10186000D9F800000006EED52020C9F80400D9F808
:10187000000000060CD4D9F8000000065CBFD9F8BF
:1018800000005FEA006003D4D9F800000006EED53E
:101890005A20C9F80400D9F8000000060CD4D9F881
:1018A000000000065CBFD9F800005FEA006003D4C6
:1018B000D9F800000006EED52D20C9F80400D9F8AB
:1018C000000000060CD4D9F8000000065CBFD9F86F
:1018D00000005FEA006003D4D9F800000006EED5EE
:1018E0003220C9F80400D9F8000000060CD4D9F859
:1018F000000000065CBFD9F800005FEA006003D476
:10190000D9F800000006EED53020C9F80400D9F857
:10191000000000060CD4D9F8000000065CBFD9F81E
:1019200000005FEA006003D4D9F800000006EED59D
:101930003020C9F80400D9F8000000060CD4D9F80A
:10194000000000065CBFD9F800005FEA006003D425
:10195000D9F800000006EED5C9F80420D9F8000037
:1019600000060CD4D9F8000000065CBFD9F80000CE
:101970005FEA006003D4D9F800000006EED5C9F88C
:1019800004B0D9F80000400600F1BA82D9F800008E
:1019900040065CBFD9F800005FEA406000F1B08209
:1019A000D9F800004006ECD5AAE200BFD9F8000043
:1019B00000060DD4D9F8000000065CBFD9F800007D
:1019C0005FEA006004D4D9F800000006EED500BF3D
:1019D000C9F80460D9F8000000060DD4D9F8000059
:1019E00000065CBFD9F800005FEA006004D4D9F8B3
:1019F00000000006EED500BF5320C9F80400D9F856
:101A0000000000060CD4D9F8000000065CBFD9F82D
:101A100000005FEA006003D4D9F800000006EED5AC
:101A2000C9F80420D9F8000000060DD4D9F8000048
:101A300000065CBFD9F800005FEA006004D4D9F862
:101A400000000006EED500BFC9F804B0D9F80000C8
:101A5000400600F15582D9F8000040065CBFD9F875
:101A600000005FEA406000F14B82D9F800004006B8
:101A7000ECD545E2B0F5802F4FF00D0100F08681E6
:101A8000B0F5803F40F03C82D9F8000000060CD44D
:101A9000D9F8000000065CBFD9F800005FEA0060DA
:101AA00003D4D9F800000006EED5C9F80460D9F8CF
:101AB000000000060CD4D9F8000000065CBFD9F87D
:101AC00000005FEA006003D4D9F800000006EED5FC
:101AD0005320C9F80400D9F8000000060CD4D9F846
:101AE000000000065CBFD9F800005FEA006003D484
:101AF000D9F800000006EED5C9F80410D9F80000A6
:101B000000060CD4D9F8000000065CBFD9F800002C
:101B10005FEA006003D4D9F800000006EED5C9F8EA
:101B200004B0D9F8000040060CD4D9F800004006F3
:101B30005CBFD9F800005FEA406003D4D9F8000028
:101B40004006EED5D9F8000400060CD4D9F80004FC
:101B500000065CBFD9F800045FEA006003D4D9F83E
:101B600000040006EED52660D9F8000400060CD467
:101B7000D9F8000400065CBFD9F800045FEA0060F1
:101B800003D4D9F800040006EED553202060D9F81C
:101B9000000400060CD4D9F8000400065CBFD9F894
:101BA00000045FEA006003D4D9F800040006EED513
:101BB0002160D9F8000400060CD4D9F8000400060E
:101BC0005CBFD9F800045FEA006003D4D9F80004D0
:101BD0000006EED5C4F800B0D9F80004400600F1C4
:101BE0008F81D9F8000440065CBFD9F800045FEA91
:101BF000406000F18581D9F800044006ECD57FE112
:101C0000D9F8000000060CD4D9F8000000065CBF2B
:101C1000D9F800005FEA006003D4D9F8000000069C
:101C2000EED54720C9F80400D9F8000000060CD40E
:101C3000D9F8000000065CBFD9F800005FEA006038
:101C400003D4D9F800000006EED53020C9F804000E
:101C5000D9F8000000060CD4D9F8000000065CBFDB
:101C6000D9F800005FEA006003D4D9F8000000064C
:101C7000EED52020C9F80400D9F8000000060CD4E5
:101C8000D9F8000000065CBFD9F800005FEA0060E8
:101C900003D4D9F800000006EED55820C9F8040096
:101CA000D9F8000000060CD4D9F8000000065CBF8B
:101CB000D9F800005FEA006003D4D9F800000006FC
:101CC000EED53220C9F80400D9F8000000060CD483
:101CD000D9F8000000065CBFD9F800005FEA006098
:101CE00003D4D9F800000006EED53020C9F804006E
:101CF000D9F8000000060CD4D9F8000000065CBF3B
:101D0000D9F800005FEA006003D4D9F800000006AB
:101D1000EED53020C9F80400D9F8000000060CD434
:101D2000D9F8000000065CBFD9F800005FEA006047
:101D300003D4D9F800000006EED5C9F80420D9F87C
:101D4000000000060CD4D9F8000000065CBFD9F8EA
:101D500000005FEA006003D4D9F800000006EED569
:101D6000C9F804B0D9F80000400600F1C980D9F8DC
:101D7000000040065CBFD9F800005FEA406000F157
:101D8000BF80D9F800004006ECD5B9E0D9F80000D2
:101D900000060CD4D9F8000000065CBFD9F800009A
:101DA0005FEA006003D4D9F800000006EED5C9F858
:101DB0000460D9F8000000060CD4D9F80000000631
:101DC0005CBFD9F800005FEA006003D4D9F80000D6
:101DD0000006EED53320C9F80400D9F8000000064B
:101DE0000CD4D9F8000000065CBFD9F800005FEA07
:101DF000006003D4D9F800000006EED5C9F804103D
:101E0000D9F8000000060CD4D9F8000000065CBF29
:101E1000D9F800005FEA006003D4D9F8000000069A
:101E2000EED5C9F804B0D9F8000040060CD4D9F8B2
:101E3000000040065CBFD9F800005FEA406003D4B0
:101E4000D9F800004006EED5D9F8000400060CD4FD
:101E5000D9F8000400065CBFD9F800045FEA00600E
:101E600003D4D9F800040006EED52660D9F80004A2
:101E700000060CD4D9F8000400065CBFD9F80004B1
:101E80005FEA006003D4D9F800040006EED53320E1
:101E90002060D9F8000400060CD4D9F8000400062C
:101EA0005CBFD9F800045FEA006003D4D9F80004ED
:101EB0000006EED52160D9F8000400060CD4D9F84C
:101EC000000400065CBFD9F800045FEA006003D498
:101ED000D9F800040006EED5C4F800B0D9F8000423
:101EE00040060DD4D9F8000440065CBFD9F80004C0
:101EF0005FEA406004D4D9F800044006EED500BF84
:101F000000202860DAF81400B84638B3DAE902B5E0
:101F1000DAF8186018E000BFDAF820704046394659
:101F20003246FEF7FFF8B819A84208BF5846CAF86B
:101F30002000DAF814000138CAF814009DF80800EF
:101F40002060DAF8140048B1D9F800040006F8D58A
:101F5000DAF814000028DFD10020F1E7DAF83000C9
:101F6000A34648B3DAE90954DAF8346019E000BF4F
:101F7000DAF83C70404639463246FEF7D3F8B819D5
:101F8000A04208BF2846CAF83C00DAF83000013801
:101F9000CAF830009DF80800C9F80400DAF83000EB
:101FA00050B1D9F800000006F8D5DAF83000002862
:101FB000DED10020F0E700BF9AF8030040F2F00500
:101FC000012804BF00208AF803009AF804005C4648
:101FD000012804BF00208AF804009AF90000C2F228
:101FE000000501284FF00A0B4FF0210647464FF03D
:101FF00041086ADBC0B202281CD0012862D1DAE9AC
:102000000D2039468DF80860FEF78CF8DAE90D20CE
:10201000DAF8281010448842CAF8380003D1DAF8F8
:102020002400CAF83800DAF830100131CAF830104C
:10203000772119E0DAE90D2039468DF80860FEF7BE
:1020400071F8DAE90D20DAF8281010448842CAF84D
:10205000380003D1DAF82400CAF83800DAF8301072
:102060000131CAF8301073218DF808103946FEF797
:1020700059F8DAE90D20DAF8281010448842CAF835
:10208000380003D1DAF82400CAF83800DAF8301042
:102090000131CAF8301039468DF808B0FEF742F821
:1020A000DAE90D01DAF8282008449042CAF838002D
:1020B00003D1DAF82400CAF83800DAF83000013029
:1020C000CAF8300000208AF800009AF901000128BF
:1020D0006BDBC0B202281DD0012863D1DAE90D20E4
:1020E00039468DF80860FEF71DF8DAE90D20DAF8B8
:1020F000281010448842CAF8380003D1DAF82400C6
:10210000CAF83800DAF830100131CAF83010672107
:102110001AE000BFDAE90D2039468DF80860FEF7B5
:1021200001F8DAE90D20DAF8281010448842CAF8DC
:10213000380003D1DAF82400CAF83800DAF8301091
:102140000131CAF8301074218DF808103946FDF7B6
:10215000E9FFDAE90D20DAF8281010448842CAF8BD
:10216000380003D1DAF82400CAF83800DAF8301061
:102170000131CAF8301039468DF808B0FDF7D2FFAA
:10218000DAE90D01DAF8282008449042CAF838004C
:1021900003D1DAF82400CAF83800DAF83000013048
:1021A000CAF8300000208AF801009AF902000128DC
:1021B000FFF626A9C0B2013803283FF61EA9DFE8C2
:1021C00010F0050021005300010100BFDAE90D20E5
:1021D00039468DF80860FDF7A5FFDAE90D20DAF839
:1021E000281010448842CAF8380003D1DAF82400D5
:1021F000CAF83800DAF830100131CAF8301061211D
:102200001AE000BFDAE90D2039468DF80860FDF7C5
:1022100089FFDAE90D20DAF8281010448842CAF85C
:10222000380003D1DAF82400CAF83800DAF83010A0
:102230000131CAF8301064218DF808103946FDF7D5
:1022400071FFDAE90D20DAF8281010448842CAF844
:10225000380003D1DAF82400CAF83800DAF8301070
:102260000131CAF8301068E1DAE9062039468DF804
:102270000860FDF757FFDAE90601DAF80C20084498
:102280009042CAF81C0003D1DAF80800CAF81C0012
:10229000DAF81410DAE90D200131CAF814103946C1
:1022A0008DF80860FDF73EFFDAE90D01DAF8282025
:1022B00008449042CAF8380003D1DAF82400CAF87A
:1022C0003800DAE90620DAF830100131CAF83010A7
:1022D00039468DF80880FDF725FFDAE90601DAF8BE
:1022E0000C2008449042CAF81C0003D1DAF8080018
:1022F000CAF81C00DAF81410DAE90D200131CAF826
:10230000141039468DF80880FDF70CFFDAE90D014D
:10231000DAF8282008449042CAF8380003D1DAF8E5
:102320002400CAF83800DAE90620DAF830100D2562
:102330000131CAF8301039468DF80850FDF7F2FE29
:10234000DAE90601DAF80C2008449042CAF81C00C9
:1023500003D1DAF80800CAF81C00DAF81410DAE938
:102360000D200131CAF8141039468DF80850FDF7D8
:10237000D9FEDAE90D01DAF8282008449042CAF8BB
:10238000380003D1DAF82400CAF83800DAE9062068
:10239000DAF830100131CAF8301039468DF808B03B
:1023A000FDF7C0FEDAE90601DAF80C20084440F235
:1023B000F0059042C2F20005CAF81C0040F0B68059
:1023C000B0E000BFDAE9062039468DF80860FDF775
:1023D000A9FEDAE90601DAF80C2008449042CAF8AE
:1023E0001C0003D1DAF80800CAF81C00DAF814104F
:1023F000DAE90D200131CAF8141039468DF8086069
:10240000FDF790FEDAE90D01DAF828200844904241
:102410004FF044054FF00D08CAF8380003D1DAF840
:102420002400CAF83800DAE90620DAF83010013161
:10243000CAF8301039468DF80850FDF773FEDAE916
:102440000601DAF80C2008449042CAF81C0003D1B7
:10245000DAF80800CAF81C00DAF81410DAE90D20DE
:102460000131CAF8141039468DF80850FDF75AFEAC
:10247000DAE90D01DAF8282008449042CAF8380059
:1024800003D1DAF82400CAF83800DAE90620DAF8CD
:1024900030100131CAF8301039468DF80880FDF748
:1024A00041FEDAE90601DAF80C20084440F2F005B2
:1024B00090424FF00A0BC2F20005CAF81C0003D18B
:1024C000DAF80800CAF81C00DAF81410DAE90D206E
:1024D0000131CAF8141039468DF80880FDF722FE44
:1024E000DAE90D01DAF8282008449042CAF83800E9
:1024F00003D1DAF82400CAF83800DAE90620DAF85D
:1025000030100131CAF8301039468DF808B0FDF7A7
:1025100009FEDAE90601DAF80C2008449042CAF80C
:102520001C0003D1DAF80800CAF81C00DAF814100D
:10253000DAE90D200131CAF8141039468DF808B0D7
:10254000FDF7F0FDDAE90D01DAF8282008449042A1
:10255000CAF838007EF44CAFDAF82400CAF8380024
:10256000FEF746BF2DE9F04F41F6006140F2500200
:102570000020C2F20021C2F200024FF0320B01240F
:102580004FF028094FF00A0A002604E01036502EBA
:1025900008BFBDE8F08F02EB460352F81650D3F89F
:1025A00004C045B1AD68CCF30F273D40EF1BB7FA2F
:1025B00087F74FEA571CDF68BC4540F08D80D3F8A1
:1025C0001080B8F1150FE1D3DF69A7F10A0EBEF153
:1025D000500FDBD8DFE80EF0302E2E2E2E2E2E2EB2
:1025E0002E2E362E2E2E2E2E2E2E2E2E2A2E2E2E07
:1025F0002E2E2E2E2E2E522E2E2E2E2E2E2E2E2ED7
:102600005A2E2E2E2E2E2E2E2E2E462E2E2E2E2EA6
:102610002E2E2E2E622E2E2E2E2E2E2E2E2E6E2E66
:102620002E2E2E2E2E2E2E2E760000BF8C51C3F86D
:102630001C90ABE7AAE700BFBCF1010F1CBF142739
:10264000DF61A3E7BCF1010F12BFC3F80880D3F824
:102650000880C3F81CB0B8F1FB0F24BF1E27DF6150
:1026600094E700BF9F68F92F01EB06078CBF7C60E1
:10267000BC6018619860C3F81CA087E7BCF1010F2B
:1026800014BFC3F80880C3F81CB07FE79F68FA2F17
:102690004FF03C0738BF4627DF6177E7BCF1010FF9
:1026A00016D1B8F16F0FC3F8088024BF3C27DF6153
:1026B0006CE700BFBCF1010F12BFC3F808805A27B6
:1026C000DF6163E78F19FC60C3F81CA018615DE748
:1026D0005027DF615AE700BF0120C3E903C0BDE80E
:1026E000F08F02E008C8121F08C1002AFAD1704713
:1026F0007047002001E001C1121F002AFBD1704782
:10270000F0B50B30154D20F007010024144A0FE0FE
:1027100003688B420BD38B4205D95E1A4318476876
:10272000C3E9006700E04368136002C004E0021DD3
:1027300010680028ECD12046002802D1286808B192
:102740000020F0BD064A07481060074A121A22F01E
:102750000702C0E9002401202860D7E70400002018
:1027600000000020140100201003002000000000E1
:102770000000000001020304060708090000000031
:1027800001020304A8270008000000201000000038
:10279000E2260008B827000810000020000700000B
:1027A000F226000800000000000000000000000009
:0827B00000A24A040000000031
:04000005080000ED02
:00000001FF
