:020000040800F2
:10000000680B002001010008090100080B0100082D
:100010000D0100080F010008110100080000000098
:10002000000000000000000000000000C91C0008E3
:100030001501000800000000A5180008CD1C0008EC
:100040001B0100081B0100081B0100081B01000820
:100050001B0100081B0100081B0100081B01000810
:100060001B0100081B0100081B01000835020008E5
:100070001B0100081B0100081B0100081B010008F0
:1000800039020008850200081B0100081B01000856
:100090001B0100081B0100081B0100081B010008D0
:1000A0001B0100081B0100081B0100081B010008C0
:1000B0001B0100081B010008511E0008390400083C
:1000C000310400081B0100081B0100081B01000887
:1000D0001B010008411F0008651F00081B010008E4
:1000E0001B0100081B0100081B010008DFF80CD0F1
:1000F00000F074F8004800470D240008680B002049
:100100000648804706480047FEE7FEE7FEE7FEE7B1
:10011000FEE7FEE7FEE7FEE7FEE7FEE7F91D000863
:10012000ED00000810B5431A934209D283188818CD
:1001300003E010F8011D03F8011D521EF9D210BD95
:1001400040EA01039B0703D009E008C9121F08C059
:10015000042AFAD203E011F8013B00F8013B521ED9
:10016000F9D210BDD2B201E000F8012B491EFBD23A
:1001700070470022F6E710B513460A4604461946B2
:10018000FFF7F0FF204610BD421C10F8011B0029AC
:10019000FBD1801A7047000070B50F4D00B9286878
:1001A000002412E00A4602E09E4203D0521C13785B
:1001B000002BF9D1DAB2224305D02BB124B10021B2
:1001C00000F8011B04E00446401C0678002EE9D12B
:1001D0002860204670BD00005C000020064C074DE2
:1001E00006E0E06840F0010394E807009847103407
:1001F000AC42F6D3FFF77EFF1048000830480008F5
:1002000000BF0B48006840F001000949086000BFCA
:1002100000BF0846406840F40070486000BF00BF5F
:100220000846406840F48070486000BF7047000096
:10023000005400407047000010B500BF104800682F
:10024000C0F3405090B100BF4FF480100C4948609B
:1002500000BF06210A4800F017FA00BF4FF4001053
:100260000749486000BF01F035FE07E000BF0448C1
:100270000068C0F3C05008B101F040FE10BD00009E
:100280000000024010B500BF10480068C0F3406095
:1002900090B100BF4FF080700C49486000BF07214B
:1002A0000A4800F0F1F900BF4FF0007007494860BC
:1002B00000BF01F00FFE07E000BF04480068C0F374
:1002C000C06008B101F01AFE10BD0000000002403D
:1002D00000200549086005490860090508600449CF
:1002E000086000BFFEE70000000800400004004076
:1002F000002C01402DE9F84F04460D4690461E465D
:10030000DDF828902448057000202449087024480E
:100310000078012803D100202149087004E000BFC3
:100320001F4800780028FBD0324606211D4800F007
:10033000F3F900BF04F110008246102053464246F4
:1003400006210090174800F085F90621154800F0B5
:10035000B7F90621134800F0C1F90621114800F051
:10036000A1F94FF48061204600F0E5FA204600F044
:1003700052FB4F4609E000F0DEFB30B1381EA7F11A
:10038000010702D1401EBDE8F88F0548007800281B
:10039000F1D00020F7E7000028000020290000200D
:1003A0001300002000000240F8B504460D46164632
:1003B0001A48047000201A4908701A480078012869
:1003C00003D100201749087001E00120F8BD324632
:1003D0000621154800F0A0F9144800F110010F465D
:1003E00010203B462A46062100900F4800F032F9C3
:1003F00006210D4800F064F906210B4800F06EF963
:100400000621094800F04EF94FF48061074800F0DA
:1004100092FA064800F0FFFA0020D7E728000020F3
:10042000290000201300002000000240005400407A
:1004300010B5FFF74DFF10BD08B500BF304840694B
:1004400000F0010070B12F4909782F4A127841EA73
:1004500002002B49096921F0FF010143284A11617B
:1004600000BF4CE000BF26484069C0F340000028B0
:1004700045D000BF2248806900F0040058BB00202E
:100480002249087022480078012807D100211C4821
:1004900000F057FA1A4800F0B9FA25E01C48007835
:1004A00002280CD10021164800F04BFA00BF144876
:1004B000006840F400601249086000BF14E000BF0B
:1004C0000F48406840F480500D49486000BF08461E
:1004D00000F09CFA08E000BF0948406840F4006062
:1004E0000749486000BF00BF00BF05484069009051
:1004F00000BF03488069009000BF00BF00BF08BD77
:100500000054004028000020290000205300002053
:10051000540000202DE9F04104460D4600260D4808
:1005200000F034F807460C4800F030F807436FB984
:10053000286830B1606820F4702029680843606042
:1005400005E0606820F47020606000E0012630461D
:10055000BDE8F081002401400028014070B5044648
:100560000D460026204600F011F860B9606820F4BE
:100570008070696808436060A06820F400602968A2
:100580000843A06000E00126304670BD014688683F
:1005900000F001007047000070B505460C460026CB
:1005A000606800B100BF2846FFF7F0FF10BB60682D
:1005B00040B1D4E901010843696821F46841084366
:1005C000686005E0686820F4684061680843686016
:1005D000E1682068084321690843A968074A114077
:1005E0000843A8606068E96A21F470010143E96288
:1005F00000BF00E00126304670BD0000FDFEF1FFA7
:1006000008B5054949690143034A516111464969E1
:100610000140009100BF08BD0010024008B5054927
:10062000C9690143034AD1611146C969014000917A
:1006300000BF08BD0010024008B5054989690143A3
:10064000034A9161114689690140009100BF08BDCC
:100650000010024070B5049C102C09D14D1E094EAB
:10066000755D0544EA604D1E755D0544AB6008E0AC
:100670004D1E044E755D0544AA604D1E755D054412
:10068000EB6070BD1C3F000810B54A1E044B9A5C1D
:10069000825822F001034A1E014CA25C835010BD17
:1006A000CD47000810B54A1E044B9A5C825842F0B0
:1006B00001034A1E014CA25C835010BD1C3F000880
:1006C00010B54A1E044B9A5C825842F002034A1E3F
:1006D000014CA25C835010BD1C3F000810B54A1E9F
:1006E000044B9A5C825842F008034A1E014CA25CFB
:1006F000835010BD1C3F000830B54B1E054CE35C19
:10070000C35823F4405313434C1E024D2C5D035138
:1007100030BD00009E47000830B54B1E064CE35C20
:1007200003445B686FF30F0313434C1E024D2C5DB3
:100730000444636030BD00001C3F000830B54B1E10
:10074000054CE35CC35844F21004A34313434C1E0E
:10075000014D2C5D035130BD9E47000830B54B1E46
:10076000054CE35CC35823F0800313434C1E024D39
:100770002C5D035130BD00009E47000830B54B1E74
:10078000054CE35CC35823F4406313434C1E024DF5
:100790002C5D035130BD00009E47000830B54B1E54
:1007A000054CE35CC35823F0200313434C1E024D59
:1007B0002C5D035130BD00009E47000830B54B1E34
:1007C000054CE35CC35823F0400313434C1E024D19
:1007D0002C5D035130BD00009E47000830B54B1E14
:1007E000054CE35CC35823F4407313434C1E024D85
:1007F0002C5D035130BD00009E4700082DE9F041FB
:1008000002460B461868C0F30F2595FAA5F0B0FA1A
:1008100080F47CE00120A0402840002876D0082CFD
:1008200004D240F2011000FA04F106E0A4F108003D
:100830004FF00116864046F080611869D66826EAB6
:1008400011260F0A97FAA7F7B7FA87F700FA07F702
:100850003E43D66000BF586802EB116691FAA1FCD6
:10086000BCFA8CFC4FEA8C084FF00F0C0CFA08FC19
:10087000376827EA0C0791FAA1FCBCFA8CFC4FEA16
:100880008C0C00FA0CFC47EA0C07376000BF586874
:10089000012802D05868092838D1986802EB1166FF
:1008A00091FAA1FCBCFA8CFC4FEA8C084FF0030CC7
:1008B0000CFA08FC376827EA0C0791FAA1FCBCFA8D
:1008C0008CFC4FEA8C0C00FA0CFC47EA0C073760F2
:1008D00000BFD86802EB116691FAA1FCBCFA8CFC4F
:1008E0004FEA8C084FF0040C0CFA08FC376827EA32
:1008F0000C0791FAA1FCBCFA8CFC4FEA8C0C00FAB4
:100900000CFC47EA0C07376000BF00BF641C25FAE7
:1009100004F000287FF47EAFBDE8F08102469068C5
:10092000C1F30F231840C1F30F23984201D10120D6
:1009300070470020FCE7026822F480620A430260EC
:100940007047026822F480620A4302607047000028
:10095000F0B5002400252B4EB1FBF6F4466826F0D6
:100960003F0626434660284EB24201D8661C07E087
:100970004FF4967666434FF47A77B6FBF7F6761C1B
:10098000076A27F03F073E4306621F4EB24224D952
:100990006BB902EB4206B1FBF6F6C6F30B060EB9D5
:1009A000012615E002EB4206B1FBF6F610E002EB81
:1009B000C20606EB0216B1FBF6F6C6F30B060EB93D
:1009C000012605E002EBC20606EB0216B1FBF6F6C5
:1009D00046F4004646EA03050CE05600B1FBF6F685
:1009E000C6F30B06042E01D2042602E05600B1FB2A
:1009F000F6F63546C6694CF6FF77BE432E43C66110
:100A0000F0BD000040420F00A0860100416841F4A3
:100A1000006141607047016841F480710160704776
:100A2000016841F40071016070477FB504460D46CE
:100A300000BF206820F00100206000BF684600F081
:100A400036F8D5E9012320460299FFF781FF69694D
:100A5000E868A26848F2FF339A4340EA01031A4368
:100A6000A26000BF2868216821F01A0101432160BB
:100A700000BF00BF206840F00100206000BF28696F
:100A8000216821F480610143216000BF002004B08F
:100A900070BD4FF47A71B0FBF1F2521E4FF0E023BB
:100AA0005A6100229A6105221A6100BF704710B591
:100AB000044600F04DFF2060206800F015FF6060E4
:100AC000606800F021FFA060606800F02FFFE06028
:100AD00010BD30B50246012300BF1068C0F380107E
:100AE00038BBD1E9000420438C682043CC68204304
:100AF0000C6920434C6920438C692043CC69204316
:100B00000C6A204314684FF6BF75AC432043106055
:100B1000506820F004004C6940EA14405060086AB4
:100B2000B0F5005F04D1486A84B2146100BF00BF11
:100B30000023184630BD4FF0E0200069C0F30040AC
:100B4000704700000149086070470000580000200D
:100B5000016821F0800101607047816821F0800107
:100B600081607047F0B503461446012901D1002584
:100B700016E0042901D1012512E0102901D1022536
:100B80000EE0402901D103250AE0B1F5807F01D1B3
:100B9000042505E0B1F5806F01D1052500E00625AB
:100BA0002846094D2E5C03F1180572191568074E89
:100BB000375C0326BE40B543260C044F3F5CBE4065
:100BC00035431560F0BD0000A5470008B347000895
:100BD000F0B503461446012901D1002516E0042989
:100BE00001D1012512E0102901D102250EE0402992
:100BF00001D103250AE0B1F5807F01D1042505E08C
:100C0000B1F5806F01D1052500E006252846094D84
:100C10002E5C03F1180572191568074E375CF02633
:100C2000BE40B543260C044F3F5CBE4035431560C3
:100C3000F0BD0000A5470008B347000870B50129C2
:100C400001D1002416E0042901D1012412E0102969
:100C500001D102240EE0402901D103240AE0B1F5BC
:100C6000807F01D1042405E0B1F5806F01D1052416
:100C700000E006242346046A054DEE5C0A25B540D3
:100C8000AC43034DED5C02FA05F52C43046270BDE4
:100C9000BA470008F0B503461446012901D10025E2
:100CA00016E0042901D1012512E0102901D1022505
:100CB0000EE0402901D103250AE0B1F5807F01D182
:100CC000042505E0B1F5806F01D1052500E006257A
:100CD0002846094D2E5C03F1180572191568074E58
:100CE000375C0C26BE40B543260C044F3F5CBE402B
:100CF00035431560F0BD0000A5470008B347000864
:100D000010B5024613681C48824208D0B2F1804FE9
:100D100005D01A48824202D01948824204D123F0F9
:100D200070004C6840EA04031348824208D0B2F1D4
:100D3000804F05D01148824202D01148824204D12E
:100D400023F44070CC6840EA040313608868D062E2
:100D500000BF0888906200BF0748824203D108693B
:100D6000106300BF00BF00BF506940F00100506138
:100D700000BF002010BD0000002C01400004004016
:100D800000080040826822F007020A438260704730
:100D9000426822F070020A4342607047016921F400
:100DA00090410161416921F02A0141617047C168A8
:100DB00041F40051C16070472DE9FF4104460D46E2
:100DC00001270026204600F041F8002833D1E968C9
:100DD0006868084329690843E16841F20C6291435D
:100DE0000843E060A868216921F440510143216172
:100DF00000BF6869616921F440710143616100BF0E
:100E00006846FFF754FE0E48844201D1039E08E075
:100E10000C48844201D1029E03E00B48844200D179
:100E2000029E46B1286830B10027314620462A6824
:100E300000F011F800BF384604B0BDE8F0810000B2
:100E40000038014000440040004800400146C868A6
:100E5000C0F34030704770B501EBC10303EB0113E1
:100E60009400B3FBF4F301EBC10404EB011495000F
:100E7000B4FBF5F46425B4FBF5F404EBC40505EB11
:100E80000414A3EB8403322404EB03136424B3FBA4
:100E9000F4F303F0F00301EBC10404EB011495003B
:100EA000B4FBF5F46425B4FBF5F403EB041401EB97
:100EB000C10303EB01139500B3FBF5F301EBC1058F
:100EC00005EB01159600B5FBF6F56426B5FBF6F5C6
:100ED00005EBC50606EB0515A3EB8503322505EBEF
:100EE00003136425B3FBF5F303F00F0323449BB214
:100EF000836070BD08B54FF0E0210969009100BF23
:100F0000411C01B1401C06E04FF0E021096901F4E9
:100F1000803101B1401E0028F6D108BD70B58EB0F9
:100F200000200C900D900B90142106A8FFF721F9DA
:100F3000142101A8FFF71DF94FF40070FFF77CFBA7
:100F40000420FFF779FB40F203300190002002906B
:100F500001A94648FFF752FC002201214448FFF74F
:100F6000EDFB002201214248FFF7C6FB00220121D0
:100F70003F48FFF713FC002201213D48FFF71EFC0C
:100F8000802201213A48FFF7E9FB4FF480720121EA
:100F90003748FFF723FC4FF4806201213448FFF704
:100FA000EDFB00200C900D900CA93248FFF7D6FA0B
:100FB00000200B900BA92F48FFF7ACFA4FF46020EC
:100FC000069000200790089009904FF480700A90D6
:100FD00006A92848FFF7E0FA26494815020400F45C
:100FE00040744FF4407595FAA5F5B5FA85F5EC40D7
:100FF00001F12C0505EB84031C6800F01F061F257A
:10100000B540AC4302F01F0500F01F06B5402C436D
:101010001C6000BF0004002200F00074054695FA31
:10102000A5F5B5FA85F5EC4001F10C0505EB840357
:101030001C6800F0F8754FF0F87696FAA6F6B6FA46
:1010400086F6F5400726AE40B44300F0F8754FF041
:10105000F87696FAA6F6B6FA86F6F54002FA05F59F
:101060002C431C6000BF0EB070BD000000080140A2
:10107000000002400024014010B54020FFF7C0FAF4
:1010800010BD70B50120FFF7BBFA00F0AFFF0546B9
:101090000022114600F0E6FB044621460B2000F03A
:1010A000ADFF0B2000F094FF00F0A0FF05460022EA
:1010B000114600F0D7FB04462146102000F09EFFA9
:1010C000102000F085FF00F091FF05460022114638
:1010D00000F0C8FB04462146112000F08FFF1120CC
:1010E00000F076FF70BD000000B585B014216846A1
:1010F000FFF73FF81020FFF79FFA2020FFF79CFA38
:101100000420FFF799FA0820FFF796FA1C48C0F36D
:101110000F211C4A516100BF009001200190022064
:1011200002900020039069461046FFF767FB1648BF
:101130000090082001900120049069461148FFF7B3
:101140005DFB124800900820019001200490694640
:101150000F48FFF753FB40F207700090002001900A
:1011600069460C48FFF74AFB0B48009008200190A5
:101170000120049069460748FFF740FB05B000BD19
:101180002000200400100140C000C0043C301C04BA
:1011900000080140000C01403030100430B58BB025
:1011A000182105A8FEF7E5FF14216846FEF7E1FFC8
:1011B0000820FFF741FA55480090092001900320CC
:1011C00002900420039069465148FFF717FB00BFC7
:1011D00050484068504908434E49486000BF4801A4
:1011E000FFF71CFA002207214C48FFF7A7FA00225C
:1011F00007214A48FFF780FA002207214748FFF7F6
:10120000CDFA002207214548FFF7D8FA80220721AE
:101210004248FFF7A3FA002207214048FFF7DEFA11
:10122000002207213D48FFF7A9FA102206213B487A
:10123000FFF784FA002206213848FFF75DFA002202
:1012400006213648FFF7AAFA002206213348FFF7A5
:10125000B5FA802206213148FFF780FA00220621E4
:101260002E48FFF7BBFA002206212C48FFF786FA2A
:1012700000F0BCFE05460022114600F0F3FA0446D9
:1012800021461F2000F0BAFE1F2000F0A1FE00F052
:10129000ADFE05460022114600F0E4FA0446214660
:1012A000202000F0ABFE202000F092FE00BF1C4882
:1012B000C06820F001001A49C86000BF00BF08469E
:1012C000006820F04000086000BF00BF08460068CA
:1012D00020F08000086000BF0020059011480690B3
:1012E0000020079008900815099000010A9005A9B0
:1012F0000B48FFF79AFB00200949C96821F0FE015D
:101300000143074AD16000BF0BB030BD03000304A6
:10131000000C0140000001400200000700000240F4
:1013200000540040801A060000B58FB0282105A89F
:10133000FEF71FFF14216846FEF71BFF4FF48040A5
:10134000FFF76CF90820FFF777F91648009009209D
:101350000190032002900020039069461248FFF795
:101360004DFA124800900420019069460E48FFF79C
:1013700045FA002005904FF48270069000200790F7
:10138000089009904FF400700A9000200B900C9088
:101390000D900A200E9005A90548FFF79AFB0FB0A3
:1013A00000BD0000A000A004000C0140400040046B
:1013B0000038004000B58BB0142106A8FEF7D9FE16
:1013C000142101A8FEF7D5FE4FF40060FFF734F9B1
:1013D0000420FFF731F929480190082002900120EC
:1013E000059001A92648FFF709FA01212548FFF7D2
:1013F000C9FC4FF4803201212248FFF7B3FB0022E1
:1014000001212048FFF746FC002201211D48FFF77B
:10141000DFFB002201211B48FFF710FC4FF4803254
:1014200010211848FFF79EFB002210211548FFF7F6
:1014300031FC002210211348FFF7CAFB00221021C3
:101440001048FFF7FBFB0020ADF8180007904FF69F
:10145000FF700890002009900A9006A90948FFF73C
:101460004FFC0848FFF774FB00210648FFF790FC8B
:101470000448FFF772FB0BB000BD0000030003043B
:1014800000080140002C014000B58BB0142106A8D3
:10149000FEF76FFE142101A8FEF76BFE0120FFF797
:1014A000BDF80420FFF7C8F80820FFF7C5F830485A
:1014B0000190082002900120059001A92D48FFF716
:1014C0009DF940F608000190082002900120059047
:1014D00001A92948FFF792F901218807FFF752FC7B
:1014E0004FF4803201218807FFF73CFB00220121E5
:1014F0008807FFF7CFFB002201218807FFF768FB71
:10150000002201218807FFF799FB4FF48032102158
:101510008806FFF727FB002210218806FFF7BAFB99
:10152000002210218806FFF753FB002210218806B5
:10153000FFF784FB0020ADF8180007904FF6FF700E
:1015400008900020099006A94FF08040FFF7D8FBD3
:101550004FF08040FFF7FCFA00214FF08040FFF78A
:1015600017FC4FF08040FFF7F8FA0BB000BD000009
:101570008000800400080140000C014000B58BB0E1
:10158000142106A8FEF7F5FD142101A8FEF7F1FDD0
:101590000220FFF743F80420FFF74EF84CF2C0009A
:1015A0000190082002900120059001A92448FFF72E
:1015B00025F901212348FFF7E5FB4FF48032012193
:1015C0002048FFF7CFFA002201211E48FFF762FBF7
:1015D0004FF4700201211B48FFF7FAFA00220121A3
:1015E0001848FFF72BFB4FF4803210211548FFF706
:1015F000B9FA002210211348FFF74CFB4FF4700298
:1016000010211048FFF7E4FA002210210D48FFF7DF
:1016100015FB0020ADF8180007900890099006A966
:101620000848FFF76DFB0748FFF792FA00210548CD
:10163000FFF7AEFB0348FFF790FA0BB000BD0000C8
:10164000000801400004004030B58BB0142106A80A
:10165000FEF78FFD142101A8FEF78BFD0420FEF795
:10166000DDFF0820FEF7E8FF4CF2C00001900820E3
:1016700002900120059001A92C48FFF7BFF800F067
:10168000B5FC05460022114600F0ECF80446214660
:101690001E2000F0B3FC1E2000F09AFC012124481B
:1016A000FFF770FB4FF4803201212148FFF75AFA0F
:1016B000002201211E48FFF7EDFA4FF470020121CC
:1016C0001B48FFF785FA002201211948FFF7B6FAF7
:1016D0004FF4803210211648FFF744FA00221021FF
:1016E0001348FFF7D7FA4FF4700210211048FFF7A4
:1016F0006FFA002210210E48FFF7A0FA0020ADF883
:1017000018000790012008900020099006A90848B9
:10171000FFF7F6FA0648FFF71BFA00210448FFF727
:1017200037FB0348FFF719FA0BB030BD000C01403E
:101730000008004030B58DB01C2106A8FEF719FD49
:10174000142101A8FEF715FD4FF40030FEF766FFE7
:101750000420FEF771FF40F204400190092002903E
:10176000032003900020049001A91948FFF746F8D0
:1017700040F6080001900420029001A91448FFF7E8
:101780003DF800F033FC05460022114600F06AF8EF
:1017900004462146262000F031FC262000F018FCEB
:1017A0004FF4E130069000200790089009900C203B
:1017B0000A9000200B900C9006A90648FFF7FCFA4F
:1017C0000448FFF7EBFA0348FFF7F1FA0DB030BD1C
:1017D000000801400044004000B58DB01C2106A85F
:1017E000FEF7C7FC142101A8FEF7C3FC4FF48020CC
:1017F000FEF714FF0820FEF71FFF1648019009208E
:101800000290032003900020049001A91248FEF7E3
:10181000F5FF124801900420029001A90E48FEF73E
:10182000EDFF4FF4E13006900020079008900990FA
:101830000C200A9000200B900C9006A90848FFF796
:10184000BBFA0748FFF7AAFA0548FFF7B0FA0DB050
:1018500000BD000004000404000C0140080008045E
:1018600000480040F0B503460C4603F00701C1F103
:101870000700042801D9042001E0C1F10700064651
:10188000081D072801D2002000E0C81E05460120DF
:10189000B040401E2040A8400127AF407F1E1740A7
:1018A0003843F0BD7047000030B50022034600BF4A
:1018B0000DE000BF00BF0B4C2468C4F3C014002C23
:1018C000F8D013F8014B074D6C6000BF521C8A42E0
:1018D000EFD300BF00BF034C2468C4F38014002C76
:1018E000F8D030BD00440040014600BF04484068C5
:1018F00000F0F0000009034A125C21FA02F0704780
:1019000000100240F7470008014600BF0548406844
:1019100000F4E060044A02EB1020027821FA02F0A1
:10192000704700000010024007480008014600BF51
:101930000548406800F46050044A02EBD020027869
:1019400021FA02F07047000000100240074800082A
:1019500010B5002400BF0B48406800F00C0020B117
:10196000042804D0082808D103E0074C07E0064CFF
:1019700005E000F00BF8044601E0034C00BF00BF97
:10198000204610BD0010024000127A000021002203
:1019900000BF1148406800F4803002461AB1B2F529
:1019A000803F0CD101E00D490BE000BF0A484068C0
:1019B000C0F34040401C0A4BB3FBF0F101E0074983
:1019C00000BF00BF00BF0448406800F4701002234D
:1019D00003EB9040484370470010024000093D006F
:1019E00000127A0010B504460CB9002000E0FF2078
:1019F00002464FF4806102480068FEF7B3FB10BD59
:101A00001C000020014A10805180704720000020F7
:101A100070B504464F48046040F6C41500E06D1EE2
:101A2000002DFCD1AE220021782001F0C7F8202241
:101A30000021782001F0C2F810220021782001F066
:101A4000BDF8B0220021782001F0B8F8C8220021AA
:101A5000782001F0B3F800221146782001F0AEF8AA
:101A600010220021782001F0A9F8402200217820DE
:101A700001F0A4F881220021782001F09FF8FF22D4
:101A80000021782001F09AF8A1220021782001F0AD
:101A900095F8A6220021782001F090F8A8220021D4
:101AA000782001F08BF83F220021782001F086F8A1
:101AB000A4220021782001F081F8D322002178208F
:101AC00001F07CF800221146782001F077F8D52249
:101AD0000021782001F072F8F0220021782001F036
:101AE0006DF8D9220021782001F068F82222002127
:101AF000782001F063F8DA220021782001F05EF806
:101B000012220021782001F059F8DB2200217820F0
:101B100001F054F820220021782001F04FF88D22A6
:101B20000021782001F04AF814220021782001F0E9
:101B300045F8AF220021782001F040F80020FFF79F
:101B400051FF00F0B5F800200349088048800120CB
:101B5000487170BD18000020200000202DE9F043DE
:101B600004464878201AC2B2486800EB82004788D1
:101B70001A48058803465888C31700EB5373DE10D4
:101B800030461BE02B4611E0BC4607F101081FFA66
:101B900088F7D1F8089019F80CC003EBC018DFF8EB
:101BA0004090D9F8009009F808C05B1CD1F804C037
:101BB0001CF822C0AC449C45E6DC401C0B78334446
:101BC0008342DFDC486810F82200401C034B1B886E
:101BD0001844024B1880BDE8F0830000200000206C
:101BE0001C0000202DE9F04304464878201AC2B2B8
:101BF000486800EB820047881E48058803465888DD
:101C0000C31700EB5373DE10304623E02B4619E078
:101C1000BC4607F101081FFA88F7D1F8089019F8B7
:101C20000CC0BCF1000F02D14FF0010C01E04FF0ED
:101C3000000C03EBC018DFF84090D9F8009009F8C9
:101C400008C05B1CD1F804C01CF822C0AC449C4501
:101C5000DEDC401C0B7833448342D7DC486810F844
:101C60002200401C034B1B881844024B1880BDE81F
:101C7000F0830000200000201C00002070B5044606
:101C80000E4615464DB104E020783146FFF766FF59
:101C9000641C20780028F7D108E004E02078314661
:101CA000FFF7A0FF641C20780028F7D1207870BDD2
:101CB00010B540200349087040F201427820FEF739
:101CC00073FB10BD640100207047000000200EE08F
:101CD000084901EB4011096941B1064901EB401186
:101CE0000969491C034A02EB40121161401C082893
:101CF000EEDB70476400002010B501203B49096805
:101D000021F007010143394A116000BF00BF00BF45
:101D10003648006800F007000128F8D100BF3448B9
:101D2000006840F480303249086000BF00BF00BF47
:101D30002F480068C0F340400028F8D04FF48030AE
:101D4000C1002B4A526822F47C1200F440330B434A
:101D50001A43274B5A6000BF00BF1846006840F086
:101D600080701946086000BF00BF00BF20480068AF
:101D7000C0F340600028F8D000201D49496821F0D8
:101D8000F00101431A4A516000BF1015114649681D
:101D900021F4E0610143516000BF00201146496811
:101DA00021F460510143516000BF0220114649688F
:101DB00021F003010143516000BF00BF00BF0C4888
:101DC000406800F00C000828F8D10A48FEF761FED0
:101DD0000848FEF7B7FE4FF480400549496821F4F2
:101DE00040410143024A516000BF10BD0020024043
:101DF000001002400048E8011148006840F001006E
:101E00000F490860084640680E4908400C49486080
:101E1000084600680C4908400949086008460068FF
:101E200020F4802008600846406820F4FE004860E6
:101E30004FF41F008860C803044908607047000021
:101E4000001002400000FFF8FFFFF6FE08ED00E082
:101E500000201B49086000BF19481038006800F0D6
:101E60001000A0B91748007840B917480068401C16
:101E7000154908600120154908701CE012480068E7
:101E80000A301149086003201049087013E00D481A
:101E9000007840B90C480068401E0B4908600220D9
:101EA0000A49087007E0084800680A3806490860CF
:101EB0000420064908700120054908707047000099
:101EC00010080040340000203000002035000020C1
:101ED0002C00002010B500BF00BF06484069C0F3C9
:101EE00080000028F8D00348FEF79AFD012002493F
:101EF000087010BD005400401300002010B51020E1
:101F0000002817DB00F01F02012191400B4A430912
:101F100042F8231000BF00BF00BFBFF34F8F00BFC8
:101F200000BF00BF00BF00BF00BFBFF36F8F00BF87
:101F300000BF00BF00BFFEF7CBF910BD80E100E09D
:101F400010B500BF06480068C0F3401038B100BFAC
:101F50000348C068C0F3401008B100F005F810BD98
:101F6000003801407047000010B500BF12484068BB
:101F7000C0B204460A2C15D101201049087010483F
:101F800000681049087040210F48FEF7F2F80C482D
:101F90000068421E0D490C48FEF7C4F800200849AD
:101FA000086007E034B106490868411C044A116022
:101FB00006490C5410BD00000044004050000020B1
:101FC0003C0000204000002018070020D806002018
:101FD000002809DB00F01F02012191404209920014
:101FE00002F1E022C2F800117047000002480068C8
:101FF000C0F30220704700000CED00E010B500288F
:1020000004DB0A07130E054A135406E00A07140EF0
:10201000034A00F00F031B1FD45410BD00E400E07E
:1020200018ED00E002E008C8121F08C1002AFAD12A
:1020300070477047002001E001C1121F002AFBD148
:10204000704710B50146002200200CE00C5C303CCB
:10205000092C02DD0C5C373C01E00C5C303CE3B247
:1020600003EB8212401C0628F0DB104610BD000076
:1020700030B50146494800785B235843484B184423
:10208000427B48480068082858D006DC012860D008
:10209000022878D004287FD11AE0112858D040288F
:1020A0000CD0B0F5806F77D13F48007880F0010008
:1020B0003D4B187001203D4B18706DE03A48007898
:1020C00080F00100384B18700120384B187063E025
:1020D000002393BB3648C1F8A000304C2478601C24
:1020E0000DE05B2444432E4D2C44647B944205D187
:1020F0002A4D287001242D4D2C7004E0401C2D4CDD
:102100002478A042EDDB00BF28480078012814D0D5
:1021100000200DE05B244443214D2C44647B944219
:1021200005D11E4D28700124204D2C7004E0401C68
:102130001A4C2478A042EDDB00BF2DE01A4800784D
:1021400080F00100184B18700120184B187023E024
:1021500022E0174BD1F8A00098421BD1002014E0D8
:102160005B2343430E4C23445C7B0C4B1B785B2569
:102170006B430B4DEB5C9C4206D1084C2070012355
:102180000A4C237005E006E0401C0A4B1B7898427D
:10219000E6DB00BF00E000BF00BF30BD1400002040
:1021A000703F0008600000202B0000202C00002061
:1021B000B92100089D4700087047000010B50024B1
:1021C0000A20894901EB4411C8618848864901EB1E
:1021D000441108608648844901EB44114860824AF2
:1021E00002EB44125168804A02EB44121068FEF779
:1021F00095FB7D4901EB441188617B4901EB44115A
:10220000C860641C0A20784901EB4411C861794810
:10221000754901EB441108607748734901EB44119B
:102220004860714A02EB441251686F4A02EB441253
:102230001068FEF773FB6C4901EB441188616A4931
:1022400001EB4411C860641C0A20674901EB44118A
:10225000C8616848644901EB4411086067486249F5
:1022600001EB44114860604A02EB441251685E4A37
:1022700002EB44121068FEF751FB5B4901EB44117D
:102280008861594901EB4411C860641C0A20564911
:1022900001EB4411C8615748534901EB44110860F0
:1022A0005348514901EB441148604F4A02EB441234
:1022B00051684D4A02EB44121068FEF72FFB4A4961
:1022C00001EB44118861484901EB4411C860641C6A
:1022D0000A20454901EB4411C8614448424901EBD9
:1022E0004411086041F210003F4901EB441148607D
:1022F0003D4A02EB441251683B4A02EB441210681B
:10230000FEF70CFB384901EB44118861364901EBBB
:102310004411C860641C0A20334901EB4411C861B0
:102320003248314901EB4411086042F220002E4945
:1023300001EB441148602C4A02EB441251682A4ACE
:1023400002EB44121068FEF7E9FA274901EB441149
:102350008861254901EB4411C860641C0A202249A8
:1023600001EB4411C86123481F4901EB4411086087
:1023700041F210001C4901EB441148601A4A02EB7B
:1023800044125168184A02EB44121068FEF7C6FA6C
:10239000154901EB44118861134901EB4411C860F0
:1023A000641C0A20104901EB4411C86111480E4910
:1023B00001EB4411086042F220000B4901EB44118B
:1023C0004860094A02EB44125168074A02EB441282
:1023D0001068FEF7A3FA044901EB44118861024931
:1023E00001EB4411C86010BD64000020000C0140E6
:1023F0001000100400080140040004040800080450
:1024000010B504462046FFF703FB10BDC0B0012005
:10241000FEF712F94FF08050FEF700F90520024652
:10242000F94B19684FF6FF031940F84B0B4343EA89
:102430000221F54B196000BF00BFF548406820F04D
:10244000E060F34948600846406840F0007048602A
:1024500000BFFFF751FC00BF4FF0E020006940F0E3
:1024600002004FF0E021086100BFFEF73DFEFEF7DD
:1024700008FEFEF701FEFFF7E7F8FFF77FF8FEF72B
:102480008DFEFEF751FFFEF795FFFEF7FDFFFFF70C
:1024900051F9FFF7A1F9FEF741FD00BFDD480068E3
:1024A0003F9000BFDB4840683F9000BF00BF00BFC7
:1024B000D848C06840F02000D649C86000BF00BFBF
:1024C0000846406940F00100486100BFFDF798FEF2
:1024D000D148FFF795FF00BFD04800780028FBD017
:1024E00000F09AFBFFF7E4FB00BF6FF00100CC495E
:1024F000086100BF00BF0846006820F002000860C5
:1025000000BF00BF0846C06840F00100C86000BFBF
:1025100000BF0846006840F00100086000BFFFF7F8
:102520004DFEC048FFF7A4FDBF48C0F30F21BF4ACE
:10253000116100BF00BF00BF0026002710E200F0BD
:1025400029FABB480068402878D00CDC08282DD038
:1025500004DC012834D0042823D123E010286ED0D5
:102560002028F9D1CDE0B0F5806F69D006DCB0F558
:10257000807F7DD0B0F5007FEED1B8E0B0F5006F80
:1025800077D0B0F5804FE7D127B10421A9A0FFF79C
:102590008BF906E02EB1002601270421A7A0FFF742
:1025A00083F9A2E19F48FFF763FD9EE1A54800780B
:1025B00080F00100A34908700120A349087094E14C
:1025C000A24800785B214843A149085CC0B10020C3
:1025D00013E05B2141439E4A11444A7B9B490978A1
:1025E0005B2359439A4B595C8A4205D1974A107034
:1025F0000121954A117002E0401C1328E9DB63E0D9
:10260000924800785B2148439149084440782E283D
:102610001BD1002016E05B2141438D4A525C8B495F
:1026200009785B2359438A4B1944497B8A4208D174
:10263000864A10700121844A117005E045E05BE094
:1026400064E0401C0C28E6DB3EE0804909785B2210
:1026500051437F4A114401F11B00FDF795FD0446EB
:1026600078480078012821D16D467848007801E04B
:1026700038E057E05B225043754A104400F11B01DB
:1026800022466846FDF74EFD6D1D621F6F480078BB
:102690005B2358436E4B184400F121012846FDF797
:1026A00041FD611E6846FFF7FFF80AE067490978B7
:1026B0005B225143664A114401F11B002146FFF79A
:1026C000F3F80126002700BF0FE15E48007820B92B
:1026D000042160A0FFF7E8F803E004215FA0FFF702
:1026E000E3F802E10A215FA0FFF7DEF8FDE0042134
:1026F0005FA0FFF7D9F8F8E00B215FA0FFF7D4F84F
:10270000F3E004215AA0FFF7CFF8EEE05D4800782F
:1027100008B9012000E000205A49087001204A4908
:102720000870E2E04FF00008042157A0FFF7BCF862
:102730000020FFF757F900210846FFF763F901224F
:10274000534954A0FFF79AFAFFF7B2FA15E00120B7
:10275000FEF7D0FB404608F10108B0F57A7F0CDBAC
:102760000020FFF73FF900210846FFF74BF901224F
:1027700047494DA0FFF782FA03E04E480078012850
:10278000E5D100BFB8F57A7F3DDA0020FFF72AF9DE
:1027900000210846FFF736F94FF0000902E00A2051
:1027A000FEF7A8FB1D4800780128F8D142A1434854
:1027B000FDF7F2FC054691E0484609F101090005E4
:1027C000010C0020FFF71EF9B9F1020F7BD128465A
:1027D000FFF737FC0446A246BAF1000F05DA384984
:1027E0000220FFF7BBF9644203E035490120FFF7FF
:1027F000B5F93DA9204600F0F5F9012224493DA88C
:10280000FFF73CFA64E06DE00CED00E00000FA0533
:10281000000001400044004000540040130000202C
:10282000000800406805002020002004001001403E
:102830006000002021330D0A0000000021320D0A43
:10284000000000002B0000202C00002014000020BD
:10285000703F000821420D0A0000000021460D0AC9
:1028600000000000473030205A3230300D0A00009E
:1028700021530D0A00000000473030205A2D32301D
:10288000300D0A003400002021300D0A0000000045
:10289000B032000872657165737420696E666F2CC2
:1028A00020776169740000006C696E6B206572723C
:1028B0006F720000500000203B000000180700204D
:1028C000B43B0008FFE7012226492846FFF7D6F966
:1028D000AFF21C010020FDF75FFC0546002D7FF4E0
:1028E0006BAF00BFFFF7E4F900BF00BF00201E4937
:1028F00008601E4890F90000002823DD1B4890F96D
:102900000000012806D0022809D003280CD0042892
:1029100014D10EE0042116A0FEF7C6FF0EE004213C
:1029200015A0FEF7C1FF09E0042115A0FEF7BCFFCA
:1029300004E0042114A0FEF7B7FF00BF00BF002091
:102940000A49087012480078012809D100F064F99A
:1029500008B1012000E000200D490870FFF7A8F938
:10296000EDE50000B03200086000002035000020D6
:10297000216C0D0A0000000021720D0A0000000009
:10298000214C0D0A0000000021520D0A0000000039
:102990002C00002070B5002406E1864800EB4410AE
:1029A000006858B1834A02EB44125168814A02EB35
:1029B00044121068FDF7B2FF054607E07E484079F3
:1029C0007C4901EB4411496800EA0105794800EBB4
:1029D0004410C068A84209D0764800EB4410C56096
:1029E0000120744901EB4411086170BD714800EB8E
:1029F0004410006914287AD96E4800EB4410C0696D
:102A0000322856D008DC0A280FD0142815D01E28EA
:102A10002FD0282810D13BE03C2858D0462867D03A
:102A200050287DD05A28F5D1A8E0012D04D01420DB
:102A3000604901EB4411C861B4E0012D05D1322099
:102A40005C4901EB4411C86107E05A4800EB4410AF
:102A50000069584901EB44118860564800EB441066
:102A60008068FA2804D91E20524901EB4411C8613C
:102A700098E00121002000EB8400800000F1085064
:102A8000C0F8001C28204B4901EB4411C86189E0C3
:102A9000012D05D13220474901EB4411C86107E0FF
:102AA000444800EB44100069424901EB441188603E
:102AB00078E0404800EB44108068FA2801D24620B4
:102AC00000E03C203B4901EB4411C8616AE0394811
:102AD00000EB44108068FA280BD20121022000EBA1
:102AE0008400800000F10850C0F8001C09E05AE0A2
:102AF00017E0012101EB8400800000F10850C0F8CC
:102B0000001C00202B4901EB44110861294901EB0D
:102B1000441188600A20274901EB4411C86141E053
:102B20001BE0012D13D1234800EB4410006921491B
:102B300001EB441188601F4800EB441080686E2848
:102B40000AD93C201B4901EB4411C86104E0502024
:102B5000184901EB4411C86124E0012D05D15A2028
:102B6000144901EB4411C86107E0124800EB44101E
:102B70000069104901EB4411886013E00121032032
:102B800000EB8400800000F10850C0F8001C0A200F
:102B9000084901EB4411C8610020064901EB4411CA
:102BA000086100BF00BF641C082CFFF6F6AE00BF32
:102BB0001BE70000640000200D0000207CB50446E7
:102BC0000E4615468DF804608DF805500A20022344
:102BD00001AA2146009002480068FDF78BFB7CBDEE
:102BE0001800002030B5092200BF0A23B0FBF3F41F
:102BF00003FB140330331446521E0B550A23B0FB5B
:102C0000F3F3181EF1D103E030251346521ECD54C4
:102C1000002AF9DA30BD00003EB54948007808B90D
:102C200001203EBD0020FEF7DDFE00210846FEF734
:102C3000E9FE4448007820B943490120FEF78EFFA1
:102C400003E041490220FEF789FF404909785B22F1
:102C500051433F4A1144C81D01223E49FFF70EF877
:102C60003A4909785B225143394A114401F1140071
:102C700001223849FFF702F800216C20FEF7C2FE5E
:102C80003548007828B90122324934A0FEF7F6FF12
:102C900004E001222F4932A0FEF7F0FF10210020AE
:102CA000FEF7B0FE294909785B225143284A1144B6
:102CB000481C01222B49FEF7E1FF10214420FEF7BA
:102CC000A1FE29480468002C05DA1F490220FEF7FE
:102CD00045FF644205E0002C03DD1B490120FEF79F
:102CE0003DFF6946204600F04FF80546012219498C
:102CF000FEF7C4FF30210020FEF784FE1348007861
:102D00005B21484312490844807E20B1012808D045
:102D1000022812D10BE001220E4914A0FEF7AEFFEB
:102D20000BE001220B4913A0FEF7A8FF05E00122EA
:102D3000084912A0FEF7A2FF00BF00BF002070E705
:102D4000130000202B000020B43B000814000020DA
:102D5000703F0008B03200083400002078310000D5
:102D600078313000543E0008300000207261646900
:102D7000616C0000666C616E6B000000696E6372CE
:102D8000656D656E74616C0002460B310023481E50
:102D90000146037000BF0A20B2FBF0F300FB1320D2
:102DA00030304B1E194618700A20B2FBF0F2002A90
:102DB000F1D1084670470000081C3044586C800070
:102DC00000000004040400000800000008000008DF
:102DD0000000000800020406080A0C0001020304B7
:102DE00005060008F80601010106F80106080808B2
:102DF00006010202FF00000F0402018141221C0CA7
:102E00000A09080808080402012121528C0204085A
:102E1000080804038040300806FF00010101010199
:102E20000F013F2111111121C102040808080403F8
:102E3000FC2211111122C403040808080403010133
:102E40000101C139070000000E0100008C52212150
:102E500021528C030408080804033C42818181420A
:102E6000FC020408080804030000C0B08C838CB086
:102E7000C000000C0300000000000000030CFF2154
:102E800021212121528C0F08080808080403F806A4
:102E900002010101010206080106040808080804ED
:102EA0000601FF01010101010206F80F08080808E8
:102EB00008040601FF212121212121010F08080812
:102EC00008080808FF212121212121010F0000000D
:102ED00000000000F80602010101414246C8010657
:102EE000040808080804060FFF202020202020FFE7
:102EF0000F0000000000000FFF0F0000000000FFA7
:102F0000070808080807FF205088040201000F0086
:102F1000000001020408FF0000000000000F080884
:102F200008080808FF0C30C000C0300CFF0F00007C
:102F300000030000000FFF0618608000FF0F000074
:102F40000001060FF80602010101010206F8010660
:102F50000408080808040601FF4141414141221CC0
:102F60000F00000000000000F8060201010101024C
:102F700006F80106040808090A040E11FF41414140
:102F80004141A21C000F00000000000007080C12C5
:102F90002121212121428402040808080808040391
:102FA00001010101FF01010101000000000F00000B
:102FB0000000FF000000000000FF030408080808EC
:102FC0000403030C30C0000000C0300C03000000FC
:102FD00000030C0300000000031C60800080700EE2
:102FE00070800080601C03000000010E01000000E2
:102FF000010E010000000102040890609008040224
:103000000108040201000000010204080102040892
:1030100010E0100804020100000000000F00000092
:10302000000001018141211905030C0A0908080863
:103030000808108888888888F000070808080808A9
:103040000708FF1008080810E00F04080808040328
:10305000E010080808102003040808080402E01023
:1030600008080810FF0304080808040FE090888887
:103070008890E0030408080804020808FE09090013
:10308000000F0000E01008080810F8038488888802
:10309000443FFF1008080810E00F00000000000F78
:1030A000F90F00F9807FFF80C0201008000F00009A
:1030B00001020408FF0FF810080810E010080810BB
:1030C000E00F000000000F000000000FF8100808DB
:1030D0000810E00F00000000000FE01008080810C2
:1030E000E003040808080403F81008080810E0FFCB
:1030F000040808080403E01008080810F80304088E
:10310000080804FFF81008080F000000708888887D
:1031100088100408080808070808FF0808000007C6
:103120000800F80000000000F80304080808040F75
:10313000186080008060180000010E01000038C097
:103140000000C038C00000C03800010E03000000BD
:10315000030E0100083040804030080806010001DD
:103160000608186080008060188080710E010000E1
:103170000808884828180C0A0908080801100000E7
:1031800000000000071002000310100007101600D6
:1031900007102400071032000710400007104E00EF
:1031A00007105C0007106A0007107800000000009C
:1031B000000000000000000000000000000000000F
:1031C00000000000000000000B10860008109C00AA
:1031D0000A10AC000910C0000810D2000810E2006C
:1031E0000A10F2000810060101101601061018015D
:1031F000081024010710340109104201071054017E
:103200000A106201081076010A10860109109A015D
:103210000910AC010910BE010810D0010B10E0012B
:103220000F10F6010B1014020B102A0208104002B6
:10323000000000000000000000000000000000008E
:10324000000000000000000008105002071060029B
:1032500007106E0207107C0207108A020510980200
:103260000710A2020710B0020110BE020210C00235
:103270000710C4020110D2020B10D4020710EA0298
:103280000710F802071006030710140304102203A6
:1032900006102A03051036030710400307104E03DB
:1032A0000B105C03071072030710800306108E03D7
:1032B000022E7A027C310008E22D00080000000096
:1032C00000000000000000000000000000000000FE
:1032D000000000008080808080801F1F1F1F1F1F34
:1032E000000000C0F0F8FCFCFE7E3F1F1F1F1F1FE8
:1032F0001F3F7EFEFCFCF8F0C000000080FCFFFFDA
:10330000FFFF7F030000000000000000000000003D
:10331000037FFFFFFFFFFC80FFFFFFFFFFFF0000B9
:103320000000000000000000000000000000FFFF9F
:10333000FFFFFFFF7FFFFFFFFFFF80000000000097
:1033400000000000000000000000FFFFFFFFFF7F03
:10335000000F3FFFFFFFFFF0C080000000000000F3
:10336000000080C0F0FFFFFFFF3F0F0000000000E3
:1033700003070F0F1F1F3F3E3E3E3E3E3E3F1F1FB7
:103380000F0F07030000000000000000808080C0D5
:10339000E0F0F8FFFFFFFFFF1F1F1F1F1F0F0F0FA2
:1033A0000F07FFFFFFFFFFFF00000000000000000D
:1033B0000000FFFFFFFFFFFF000000000000000013
:1033C0000000FFFFFFFFFFFF000000000000000003
:1033D0000000FFFFFFFFFFFF0000000000000000F3
:1033E00000001F1F1F1F1F1F000080C0F0F8F8FC07
:1033F000FE7E3E3F1F1F1F1F1F1F3F3F7EFEFEFC26
:10340000F8F0E0C000001C1F1F1F1F1F030000007A
:10341000000000000000000000000003FFFFFFFFAD
:10342000FFFE00000000000000000000000000009F
:1034300000000080C0E0F0F8FFFF7F3F1F070100A1
:103440000000000000000080C0E0F0F0F8FCFE7F0B
:103450003F1F0F0703010000000000000080E0F0A4
:10346000F8FCFEFF7F1F0F070303010000000000B0
:103470000000000000000000001E1F1F1F1F1F1F74
:103480001F1F1F1F1F1F1F1F1F1F1F1F1F1F1F1F4C
:103490001F1F1F1F1F1F0000C0F0F8FCFCFE7E3E18
:1034A0003F1F1F1F1F1F1F3F7EFEFCFCF8F0C000C8
:1034B00000000007070707070701000000000000E1
:1034C000000000000081FFFFFFFFFF7F0000000001
:1034D000000000000000000000F8F8F8F8F8FCFC1C
:1034E000FEFFFFEFC7838100000000000000000026
:1034F0000000000000000000000000010103071FA1
:10350000FFFFFFFFFCF01CFCFCFCFCFCE0C08000AB
:1035100000000000000000000080C0F0FFFFFFFF7F
:103520007F0F00000103070F0F1F1F1F3F3E3E3E8E
:103530003E3E3E3F1F1F1F0F070703000000000015
:1035400000000000000000000000000080C0F0F853
:10355000FEFFFFFFFFFF0000000000000000000072
:10356000000000000080E0F0FCFE3F1F0703FFFFAB
:10357000FFFFFFFF00000000000000000000C0E0AF
:10358000F8FC7F3F0F07010000000000FFFFFFFF76
:10359000FFFF000000000000F0F8FEFFFFEFE3E196
:1035A000E0E0E0E0E0E0E0E0E0E0FFFFFFFFFFFF61
:1035B000E0E0E0E0E0E003030303030303030303AD
:1035C0000303030303030303FFFFFFFFFFFF0303E3
:1035D00003030303000000000000000000000000DF
:1035E0000000000000001F1F1F1F1F1F0000000021
:1035F000000000000080FEFEFEFE7E3E3E3E3E3E9F
:103600003E3E3E3E3E3E3E3E3E3E3E3E00000000D2
:1036100000FFFFFFFFFF00000000000000000000AF
:10362000000000000000000000000000FCFFFFFFA1
:10363000FF7B3C3E1E1E1F1F1F1F1F3F7F7EFEFC89
:10364000FCF8F0E080000000000000000000000036
:10365000000000000000000000000107FFFFFFFF66
:10366000FFFC1C7CFCFCFCFCF0C0800000000000A7
:103670000000000080C0E0FCFFFFFFFF3F070000EC
:103680000103070F0F1F1F3F3F3E3E3E3E3E3F3FA1
:103690001F1F0F0F07030100000000000080E0F073
:1036A000F8FCFEFE7E3F1F1F1F1F1F1F3F7EFEFCFC
:1036B000FCF8F0C0000000F8FEFFFFFFFF0F030062
:1036C00000000000000000000000010707070707D6
:1036D0000600FFFFFFFFFFFFF0F8787C3E3E1F1F54
:1036E0001F1F1F3F3F7EFEFCFCF8F0C080007FFFE5
:1036F000FFFFFFFF8100000000000000000000004D
:1037000000000107FFFFFFFFFFFC000F3FFFFFFF6F
:10371000FFF8E08000000000000000000080E0F8FA
:10372000FFFFFFFF3F07000000000103070F1F1FFF
:103730001F3F3E3E3E3E3E3F1F1F1F0F070301003F
:1037400000003E3E3E3E3E3E3E3E3E3E3E3E3E3E15
:103750003E3E3E3E3E3E3E3EFEFEFEFEFE3E000045
:103760000000000000000000000000000000000059
:1037700080F0FCFFFFFF1F070000000000000000BA
:10378000000000000000000000C0F0FEFFFF7F0FFF
:103790000300000000000000000000000000000026
:1037A0000000E0F8FEFFFF3F0F01000000000000F6
:1037B0000000000000000000000080E0FCFFFFFFB0
:1037C0001F070100000000000000000000000000D2
:1037D00000000000101E1F1F1F1F0300000000003C
:1037E00000000000000000000000000000E0F0F811
:1037F000FCFCFE7E3F1F1F1F1F1F1F3F7EFEFCFCA9
:10380000F8F0E000000000007FFFFFFFFFFFC100B5
:10381000000000000000000000C1FFFFFFFFFF7F6D
:10382000000000000001070F1FBFBFFFFEFCF8F003
:10383000F0F8FCFEFFBFBF1F0F070100000080F083
:10384000F8FCFEFF7F1F0F0F0703030101030307AF
:10385000070F1F7FFFFEFCF8F0801FFFFFFFFFFF39
:10386000F0C0800000000000000000000080C0F0F8
:10387000FFFFFFFFFF1F00000103070F0F1F1F1FA8
:103880003F3E3E3E3E3E3E3F1F1F1F0F0F070301C0
:1038900000000000C0E0F0F8FCFE7E3E3F1F1F1F4E
:1038A0001F1F3F3E7EFEFCF8F0E0C0000000F8FF66
:1038B000FFFFFFFF07010000000000000000000004
:1038C0000001077FFFFFFFFFFC800F7FFFFFFFFF6F
:1038D000F8E0800000000000000000008080C0E0F0
:1038E000FFFFFFFFFFFF00000003070F0F1F1F3F39
:1038F0003F3E3E3E3E3E1F1F0F0707E3FFFFFFFF19
:10390000FF3F0038F8F8F8F8F8E080000000000009
:1039100000000080C0F0FCFFFFFF7F1F07000000D9
:103920000003070F0F1F1F3F3E3E3E3E3E3E3F1F20
:103930001F1F0F07030100000000FEFEFEFEFEFE3B
:103940003E3E3E3E3E3E3E3E3E3E3E3E3E3E3E3E97
:103950003E3E3E3E3E3E3EFFFFFFFFFFFF000000BB
:103960000000000000000000000000000000000057
:1039700000000000FFFFFFFFFFFFF0F0F0F0F0F0AD
:10398000F0F0F0F0F0F0F0F0F0F0F0F0F0F0000017
:1039900000FFFFFFFFFFFF01010101010101010124
:1039A0000101010101010101010101000000FFFF0E
:1039B000FFFFFFFF0000000000000000000000000B
:1039C00000000000000000000000001F1F1F1F1F5C
:1039D0001F000000000000000000000000000000C8
:1039E00000000000000000003E3E3E3E3E3E3E3EE7
:1039F0003E3E3E3E3E3EFEFEFEFEFEFE3E3E3E3E67
:103A00003E3E3E3E3E3E3E3E3E3E0000000000004A
:103A10000000000000000000FFFFFFFFFFFF0000AC
:103A20000000000000000000000000000000000096
:103A300000000000000000000000FFFFFFFFFFFF8C
:103A40000000000000000000000000000000000076
:103A5000000000000000000000000000FFFFFFFF6A
:103A6000FFFF000000000000000000000000000058
:103A70000000000000000000000000000000FFFF48
:103A8000FFFFFFFF0000000000000000000000003A
:103A90000000000000000000000000000000000026
:103AA0001F1F1F1F1F1F000000000000000000005C
:103AB00000000000062E0000000000001C2E240064
:103AC000102ECC001D2E2C011C2EDA011E2E82027F
:103AD0001C2E36031C2EDE031C2E86041C2E2E05E7
:103AE0001C2ED605000000000000000000000000B1
:103AF00000000000000000000000000000000000C6
:103B000000000000000000000000000000000000B5
:103B1000000000001D2E7E060000000000000000D6
:103B20000000000000000000000000000000000095
:103B30000000000000000000000000000000000085
:103B4000000000000000000000000000222E2C07F2
:103B5000062E5402B43A0008BC3200080000F0FF00
:103B60003F031FFFF8C00000787F3F0F0E0E0E0FBF
:103B70000F7F7E7080C0E0F0B89080808080808071
:103B8000800103070F1D090101010101010180806E
:103B9000808080808090B8F0E0C080010101010148
:103BA0000101091D0F0703010C0F00000D0F180084
:103BB0000D0F320002000202A83B00085C3B000827
:103BC000000000000000070707E0F8FE1E070303DF
:103BD0000303071EFEF8E03FFFFFC00000000000E7
:103BE00000C0FFFF3F0000030307060606060703A9
:103BF000030000303030383CFFFFFF0000000000C1
:103C0000FFFFFF0000000000070707303C3E0E07E3
:103C100003030303078FFEFCF80080C0E0E0703868
:103C20001C1C0E070301000607070706060606060A
:103C30000606060606181C1E0F070303038387FEED
:103C4000FE7800C0C0C0800003030303078FFEFCA2
:103C5000F800010307070606060607030301000034
:103C600000000080E0F0781EFFFFFF000000707889
:103C70007C6F6763606060FFFFFF60606000000052
:103C800000000000000007070700000000E0FFFF41
:103C90009FC3C3C3C3C383830300C0C3C3830101E2
:103CA0000000000183FFFF7C0001030707060606F2
:103CB000060703030100E0F8FC3E8F8783838387B8
:103CC000071E1C183FFFFFC303010101010387FF0B
:103CD000FE7C000001030707060606070303010038
:103CE000030303030303030383E3FF7F1F070000B2
:103CF000000000E0F8FE3F070100000000000004A3
:103D000007070300000000000000007CFEFEC783E0
:103D1000030383C7FEFE7C00F0F8FC8F0707030354
:103D200007078FFCF8F000010307070606060607E1
:103D300007030100F0FCFE0E0703030307071EFC48
:103D4000F8E0C1C3C7070E0C0C0C0C8EE6FFFF3F5A
:103D50000001030707060606070703010000FFFF2F
:103D6000FF0303030303030303030303FFFFFF0333
:103D70000303030303030303030007070700000013
:103D80000000000000000000030303030303FFFF23
:103D9000FF030303030303000000000000FFFFFF15
:103DA00000000000000000000000000007070700FE
:103DB00000000000000003130000000000000E13CC
:103DC0000900081333000E134B000E1375000F1378
:103DD0009F000E13CC000E13F6000E1320010E13DD
:103DE0004A010E13740100000000000000000000F2
:103DF00000000000000000000000000000000000C3
:103E000000000000000000000000000000000000B2
:103E10000000000000000E139E01000000000000E2
:103E20000000000000000000000000000000000092
:103E30000000000000000000000000000000000082
:103E400000000000000000000000000000000F1350
:103E5000C8010000032E5402B63D0008C03B000814
:103E6000FC422131110AFC0001020202010004029D
:103E700001FF00000002020203020202020181416E
:103E8000231E00020302020202020111111139EE87
:103E9000020202020100C0E0988E83FF80800000D1
:103EA0000000000300001F11111131E002020202A4
:103EB0000100F82613111131E00001020202010194
:103EC000010181E1390F0300020300000000CE2947
:103ED000111129CE0103020202011E322121219279
:103EE0007C00020202010100070A0000070A0E001E
:103EF000070A1C00060A2A00080A3600060A4600BD
:103F0000070A5200070A6000060A6E00070A7A00D4
:103F100002303902E83E0008603E0008081C3044C8
:103F2000586C800000000004040400000800000039
:103F3000080000080000000800020406080A0C003F
:103F4000010203040506081C3044586C8000000080
:103F5000000404040000080000000800000800003D
:103F6000000800020406080A0C000102030405060A
:103F700000302E313000006D6D00000000002E3644
:103F8000350000002E303236000000473031205A14
:103F90002D3230302046302E310D0A000000000056
:103FA0000000000000000000000000000000000011
:103FB0000000000000000000000000000000000001
:103FC000000000000000000000000000302E30352E
:103FD00000006D6D00000000000000000000000007
:103FE000000000000000473031205A2D32303020D0
:103FF00046302E30350D0A000000000000000000A1
:1040000000000000000000000000000000000000B0
:1040100000000000000000000000000000000000A0
:1040200000000000000000302E303100006D6D00F7
:104030000000000000000000000000000000000080
:1040400000473031205A2D3230302046302E30316A
:104050000D0A000000000000000000000000000049
:104060000000000000000000000000000000000050
:104070000000000000000000000000000000000040
:104080000000312E353000006D6D00000000002E64
:1040900039350000002E303337000000473333201D
:1040A0005A2D323030204B312E350D0A00000000E1
:1040B0000000000000000000000000000000000000
:1040C00000000000000000000000000000000000F0
:1040D00000000000000000000000000000322E354B
:1040E0003000006D6D00000000002E36350000002D
:1040F0002E303236000001473333205A2D32303013
:10410000204B322E350D0A00000000000000000098
:10411000000000000000000000000000000000009F
:10412000000000000000000000000000000000008F
:104130000000000000000000332E303000006D6DE4
:10414000000000000000000000000000000000006F
:104150000000473333205A2D323030204B332E307D
:104160000D0A000000000000000000000000000038
:10417000000000000000000000000000000000003F
:10418000000000000000000000000000000000002F
:10419000000000302E323000006D6D000000000085
:1041A0000000000000000000000000000047303167
:1041B000205A2D3230302046302E320D0A000000B9
:1041C00000000000000000000000000000000000EF
:1041D00000000000000000000000000000000000DF
:1041E000000000000000000000000000000A540071
:1041F000000000006D6D00000000000000000000E5
:1042000000000000000000000000000000000000AE
:10421000000000000000000000000000000000009E
:10422000000000000000000000000000000000008E
:10423000000000000000000000000000000000007E
:10424000000000000000000000312E323500006D3B
:104250006D000000000A2E37390000002E30333187
:10426000000000473333205A2D323030204B312E9E
:1042700032350D0A000000000000000000000000C0
:10428000000000000000000000000000000000002E
:10429000000000000000000000000000000000001E
:1042A00000000000312E373500006D6D0000000069
:1042B0000A312E313100002E3034340000004733F3
:1042C00033205A2D323030204B312E37350D0A0035
:1042D00000000000000000000000000000000000DE
:1042E00000000000000000000000000000000000CE
:1042F000000000000000000000000000000000328C
:104300002E303000006D6D000000000A312E323674
:1043100000002E303530000000473333205A2D3254
:104320003030204B322E300D0A000000000000001B
:10433000000000000000000000000000000000007D
:10434000000000000000000000000000000000006D
:1043500000000000000000000000302E353000009A
:104360006D6D000000000A2E33340000002E303145
:1043700033000000473333205A2D323030204B3089
:104380002E350D0A000000000000000000000000B3
:10439000000000000000000000000000000000001D
:1043A000000000000000000000000000000000000D
:1043B0000000000000302E373500006D6D00000059
:1043C000000A2E35300000002E3032300000004749
:1043D0003333205A2D323030204B302E37350D0AF2
:1043E00000000000000000000000000000000000CD
:1043F00000000000000000000000000000000000BD
:1044000000000000000000000000000000000000AC
:10441000302E303100006D6D000000000A000000F9
:1044200000000000000000000000473031205A2D3D
:104430003230302046302E30310D0A0000000000AE
:10444000000000000000000000000000000000006C
:10445000000000000000000000000000000000005C
:104460000000000000000000000000302E30350089
:10447000006D6D000000000A000000000000000058
:104480000000000000473031205A2D3230302046E5
:10449000302E30350D0A0000000000000000000042
:1044A000000000000000000000000000000000000C
:1044B00000000000000000000000000000000000FC
:1044C00000000000000054323700000074706900E2
:1044D00000000A00000000000000000000000000D2
:1044E000473333205A2D323030204B302E3934317F
:1044F0000D0A0000000000000000000000000000A5
:1045000000000000000000000000000000000000AB
:10451000000000000000000000000000000000009B
:10452000005432360000007470690000000A000078
:104530000000000000000000000000473333205A54
:104540002D323030204B302E3937370D0A00000025
:10455000000000000000000000000000000000005B
:10456000000000000000000000000000000000004B
:104570000000000000000000000000005432340081
:1045800000007470690000000A00000000000000D4
:10459000000000000000473333205A2D3230302015
:1045A0004B312E3035380D0A0000000000000000AD
:1045B00000000000000000000000000000000000FB
:1045C00000000000000000000000000000000000EB
:1045D00000000000000000543232000000747069D6
:1045E0000000000A000000000000000000000000C1
:1045F00000473333205A2D323030204B312E3135A5
:10460000350D0A000000000000000000000000005E
:10461000000000000000000000000000000000009A
:10462000000000000000000000000000000000008A
:1046300000005432300000007470690000000A006D
:10464000000000000000000000000000473333209D
:104650005A2D323030204B312E32370D0A000000F7
:10466000000000000000000000000000000000004A
:10467000000000000000000000000000000000003A
:10468000000000000000000000000000005431396C
:104690000000007470690000000A000000000000C3
:1046A00000000000000000473333205A2D32303024
:1046B000204B312E3333370D0A000000000000007C
:1046C00000000000000000000000000000000000EA
:1046D00000000000000000000000000000000000DA
:1046E0000000000000000000543138000000747029
:1046F000690000000A000000000000000000000047
:104700000000473333205A2D323030204B312E34C5
:1047100031310D0A00000000000000000000000020
:104720000000000000000000000000000000000089
:104730000000000000000000000000000000000079
:104740000000002E2E000000007570000000000A1E
:104750000000000000000000000000000000000059
:104760000000000000000000000000000000000049
:104770000000000000000000000000000000000039
:104780000000000000000000000000000000000029
:104790000000000000000000000000000017081CDE
:1047A0003044586C8000000000040404000008003D
:1047B0000000080000080000000800020406080AC3
:1047C0000C000102030405066F6B0D0A00081C3083
:1047D00044586C800000000004040400000800003D
:1047E00000080000080000000800020406080A0C87
:1047F00000010203040506000000000000000001A3
:104800000203040607080900000000010203040077
:10481000304800080000002060000000242000084C
:104820009048000860000020080B000034200008B9
:104830000000000000000000000000000000000078
:1048400000000001000000000000000065010020E1
:104850000000000000000000000000000000000058
:104860000000000000000000FFFFFFFF000000004C
:104870000000000000000000000000000000000038
:10488000000500000F00000000A24A040000000024
:04000005080000ED02
:00000001FF
